:1004360044616E67206B686F692074616F20454E5A
:100446004332384A36303A0A004B686F6920746185
:100456006F207468616E6820636F6E672121210AC0
:10046600004B686F692074616F2074686174206244
:1004760061692E2E2E2E0A004461206E68616E2060
:100486003120676F692074696E200A004461206E0E
:1004960068616E20676F692074696E20636F2064DF
:1004A6006F20646169203D202569200A0044617936
:1004B600206C6120676F692074696E20415250205C
:0704C6000A002558200A007E
:1008CC0012095712090A1206651205C912055B12A4
:0708DC0006AA1207B580FB1C
:0F090A00759852758920758BFD758DFDD28E22E3
:07095700D2A3C2A0D2A2222C
:10080300E4FDFCC3ED9FEE6480F8EC648098501522
:10081300E4FBFA0BBB00010AEB647B4A70F50DBDE8
:0508230000010C80DE65
:0108280022AD
:0A089400C2A3ED541F4FFF1208B37A
:10089E00E4FEEF25E0FFD2A030A203430701C2A081
:0408AE000EBE08EE84
:0108B2002223
:1008B300E4FEEF30E704D2A18002C2A1D2A0C2A01D
:0808C300EF25E0FF0EBE08EA7C
:0108CB00220A
:0C087200E4FB7F4012087E7B0C0D7F40F1
:10087E00AE07AC03C2A3ED541F4EFF1208B3AF0474
:06088E001208B3D2A32200
:05095E00120894D2A371
:010963002271
:08094E0012089412089ED2A3C6
:01095600227E
:0F091900C2A37FFF1208B3E4FF1208B3D2A322D8
:10082900A907C2A37FBF1208B37F031208B3D2A3DB
:100839007F017E00120803C2A37F9F1208B3AF0194
:060849001208B3D2A32245
:100665007BFF7A0479361200651209197F0A7E002C
:10067500120803E4FF1208297D1DE4FF12095EEF4D
:1006850070047F0180027F00EF20E0ECE4FDFF12A3
:10069500095E7BFFBFFA067A04794F80047A0479F4
:0506A500671200652250
:1005C900E4F55BF55AFF1208297D041208727BFFD6
:1005D9000D7F4012087E7B1F0D7F4012087EE4FBD1
:1005E9000D7F4012087E0D7F4012087E7BFF0D7F34
:1005F9004012087E7B0B0D7F4012087EE4FB0D7FC5
:100609004012087E0D7F4012087E0D7F4012087E41
:060619000D7F4002087E87
:10055B007F021208297B0DE4FD7F4012087E7B325F
:10056B007D027F4012087E7B127D047F4012087E45
:10057B007D061208747BDC7D0A7F4012087E7B05AA
:10058B000D7F4012087E7F031208297B107D017FAF
:10059B004012087E7B0A1D7F4012087E7B207D0364
:1005AB007F4012087E7B071D7F4012087E7B197DE2
:0E05BB00057F4012087E7B891D7F4002087E6E
:1006EF007F031208297D01E4FF12094E8F22E41DBA
:1006FF00FF12094E8F237D03E4FF12094E8F241D35
:10070F00E4FF12094E8F257D05E4FF12094E8F2657
:09071F001DE4FF12094E8F272290
:10084F00AE07AA03A905AB067D147F4012087EAB45
:10085F00017D167F4012087EAB020D7F4012087E8D
:03086F000208E399
:1006AA007F02120829E4FBFDFF12084F7B01E4FDDB
:1006BA007F1012084F7B347D267F1412084F7F0368
:1006CA001208297B027D157F4012087E7F017E0079
:1006DA001208037BC07D1B7F8012087E7B047D1F6E
:0506EA007F8002087E84
:1008E3007F031208297D0AE4FF12094EEF20E0F589
:0508F3007F020208294C
:100728008B088A09890AAD07AC06C2A37F7A801CA8
:10073800ED1DAE0470011C4E6017AB08050AE50AF2
:10074800AA097002050914F91204CDFF1208B38032
:04075800DFD2A32227
:10061F008B0B8A0C890D8F828E83E4FF1208297D44
:10062F001FE4FF12095EEF20E3F57D021208727BD3
:10063F003E7D061208747F7A1208B3E4FF1208B3E6
:10064F00AF82AE83AB0BAA0CA90D1207287B087DD6
:06065F001F7F8002087EEF
:0C092800C2A37F3A1208B312089ED2A3AB
:0109340022A0
:10078E00AD07AC06C2A37F3A1208B3ED4C6015ED6F
:10079E001D70011C12089EEF120513740129F9E455
:0707AE003AFA80E7D2A32212
:0A035F008E608F618B628A638964EF
:10036900E4F565F566F567F5687F011208297D19D9
:10037900E4FF12095EEFD3940050030204317BFFBE
:100389007A04797E120065E4FF120829AB5BE4FD6B
:100399007F4012087EAB5A0D7F4012087E12092851
:1003A9008F5B1209288F5AAD5B12093D8E5C8F5DF8
:1003B900120935EF24FCF566EE34FFF565D3E566E1
:1003C9009561E565956040068560658561661209F8
:1003D900358E678F68E56820E707E4F565F566807F
:1003E9000DAB62AA63A964AF66AE6512078EE55DBF
:1003F90024FFFFE55C34FFFED3EF94FFEE940B403E
:100409000D7BFF7D0C7F4012087E7B0B800BAB5B65
:100419007D0C7F4012087EAB5A0D7F4012087E7B0F
:0C042900407D1E7F8012087EAE65AF662D
:0104350022A4
:1007B5007B007A0079287F327E0012035F8E5E8F80
:1007C5005FE55F455E7001227B007A007928AF5FA7
:0707D500AE5E12075C80D943
:10075C00D3EF9429EE9400402890000C1204E6B4D8
:10076C00081F90000D1204E6B406167BFF7A04797C
:10077C00928E6C8F6D1200657BFF7A0479B3120038
:02078C006522E4
:08093500120928AD0712092880
:04093D00EFFEEDFFDD
:010941002293
:1008F800EFF50EEE7BFF7A0479C8F56C850E6D0274
:02090800006588
:03000000020942B0
:0C094200787FE4F6D8FD75817C0208CCBB
:1004CD00BB010689828A83E0225002E722BBFE022D
:0904DD00E32289828A83E4932260
:1004E600BB010CE58229F582E5833AF583E02250CB
:1004F60006E92582F8E622BBFE06E92582F8E22215
:0D050600E58229F582E5833AF583E493222E
:10051300BB010689828A83F0225002F722BBFE01C7
:02052300F322C1
:10000300E578246CF8E60578227869300702786C85
:10001300E475F0011205250204CD2000EB7F2ED2FA
:10002300008018EF540F2490D43440D4FF30040BD5
:10003300EF24BFB41A0050032461FFE57960021571
:1000430079057CE57C7002057B30070D7869E475E2
:10005300F001120525EF0205130207DC7403D20732
:100063008003E4C207F5788B698A6A896BE4F579C2
:10007300F57BF57CE57960077F2012003E80F575FE
:100083007AFFC201C200C202C203C205C206C2088D
:1000930012000CFF700D3007057F0012004FAF7C7C
:1000A300AE7B22B4255FC2D5C20412000CFF24D05C
:1000B300B40A00501A75F00A787930D50508B6FFEE
:1000C3000106C6A426F620D5047002D20380D924E3
:1000D300CFB41A00EF5004C2E5D20402024FD2019A
:1000E30080C6D20080C0D20280BCD2D580BAD205ED
:1000F30080B47F2012003E2002077401B5790040CE
:10010300F1120003FF12003E020077D208D20680EC
:1001130095120003FB120003FA120003F94A4B7015
:100123000679207A037BFF20022EE579602A7E0080
:100133008E827583001204E660060EEE657A70F017
:10014300C2D5EBC0E0EAC0E0E9C0E0EE120296D00F
:10015300E0F9D0E0FAD0E0FB1204CDFF60AAEBC0D7
:10016300E0EAC0E0E9C0E012003ED0E02401F9D0AB
:10017300E03400FAD0E0FBE57A0460DCD57AD9807C
:10018300877BFF7A027992D202809C791080027970
:1001930008C206C2088008D2D5790A8004790AC247
:1001A300D5E57A047002F57AE4FAFDFEFF12000346
:1001B300FC7B08200113120003FD7B1030000A12A0
:1001C3000003FE120003FF7B20EC3382D592D5504F
:1001D30013C3E43000069FFFE49EFEE42001039D69
:1001E300FDE49CFCE4CBF8C201EC700CCFCECDCC8B
:1001F300E824F8F870F38017C3EF33FFEE33FEED16
:1002030033FDEC33FCEB33FB994002FB0FD8E9EBF6
:10021300300105F8D0E0C448B201C0E00AEC4D4E0D
:100223004F78207B0070C2EAB57A0040BCC0E01270
:100233000298D0F0D0E0200104C4C0E0C4B201C0F1
:10024300F0120027D0F0D5F0EB020077120535014C
:100253001453018E5800E54C00E14201924F019A7C
:0F02630044019A4900FA4301A0550184460184E1
:100272004501844703405000E92D00ED2E01102B6B
:1002820000F123010E2003292A00A94800000108D9
:100292003F3F3F00790AA2D5200314300509B91067
:1002A200020404B9080104A2D52006025001042068
:1002B20002689202B579005034C0E07F2030031901
:1002C2007F30A20272067205500F1202EFC202C202
:1002D20006C205C2087F30800F300503E9C0E01274
:1002E200003E300503D0E0F9D0E0B579CC300517F7
:1002F2007F30B9100C12003E7F583004077F78809F
:1003020003B9080312003E3002057F2D02003E7F32
:10031200202008F87F2B2006F322920280CF286E3D
:10032200756C6C2900D2011200033001F8C2017809
:100332007930D50108F60200A92D50434958120020
:10034200032403B405004001E490033B9312002F01
:0D035200743A12002FD20375790402018E57
:10052500FAE6FB0808E6F925F0F618E6CA3AF622D7
:10053500D083D082F8E4937012740193700DA3A355
:1005450093F8740193F5828883E473740293686069
:06055500EFA3A3A380DF69
:1007DC00EFB40A07740D1207E7740A309811A89940
:1007EC00B8130CC2983098FDA899C298B811F6307D
:0707FC0099FDC299F5992255
:00000001FF
