:030000000202DB1E
:0C02DB00787FE4F6D8FD75811F02032235
:10038000140800C000F900A400B000990092008297
:0603900000F8008000905F
:0903670025E02408F808E6F58001
:0F0370007F017E000FBF00010EBE03F8BFE9F54D
:01037F00225B
:10023D00C2B5C2A2C2A1C2A0C2B6D2B620B4FDC27E
:10024D00B7AF90751C008F1DAE1C7C007D0A12018E
:10025D00C8AC06AD07E412010EE4FBFA7980783DD7
:10026D001200031201478E1C8F1D7C007D6412014C
:10027D00DAAB07EB3395E0FE7C007D641201C8C359
:10028D00E51D9FFFE51C9EFE7D0A1201DAAD07EB11
:10029D0075F064A4FEC3E51D9EFFED75F00AA4FE86
:1002AD00C3EF9EFCC2A0EB120367D2A0C2A1ED2545
:1002BD00E02408F808E6F580C287120370D2A1D2B7
:0E02CD0087C2A2EC120367D2A2D2B70202458A
:10000300EC4D6011E8497017ED33EC3304600DE4F7
:10001300FCFFFEFD22E933E8330470F80201B3125A
:10002300017E58046009E4CC24815006285009025B
:1000330001BD2840030201BAC0E0EB4A7044B98015
:1000430006D0E0FB0201A9EF4E701CBD8008EBFF58
:10005300EAFEE9FD80EBE98DF0A4FEE5F00200EC99
:10006300E9CDF9EAFEEBFFEF89F0A4FCE5F0CE89D8
:10007300F0A42EFFE435F0CD89F0A42DFEE435F095
:100083008067EF4E7005BD80D780C3EF8BF0A4ACC3
:10009300F0EE8BF0A42CFCE435F0F8EF8AF0A42CFE
:1000A300E5F038FCE433CB8DF0A42CFCE5F03BF811
:1000B300EE8AF0A42CFCE5F038F8E433CF89F0A401
:1000C3002CFCE5F038CF3400CE89F0A42FFFE5F007
:1000D3003EFEE433C98DF0A42EFEE5F039CD8AF05F
:1000E300A42FFFE5F03EFEE43DFD33D0E0FB5007D7
:1000F3000BBB000F0201BDEC2CFCEF33FFEE33FE14
:06010300ED33FD02019541
:1001090075F020800E75F010800575F0087D007E71
:10011900007F003392D530D50312022FEC33401003
:10012900EF33FFEE33FEED33FDEC33FCD5F0ED227A
:0E013900E5F0247EA2D513CC92E7CDCEFF22B6
:10014700EDD2E7CD33EC3392D524814006E4FFFEB0
:10015700FDFC22FCE4CFCECDCC24E0501174FF800F
:10016700EDC3CC13CCCD13CDCE13CECF13CF0470AC
:07017700F030D5DE02022F7B
:10017E00E9D2E7C933E833F892D5EDD2E7CD33ECC7
:07018E0033FC5002B2D52240
:10019500EC30E7100FBF000C0EBE00080DBD0004CB
:1001A5000BEB6014A2D5EB13FCED92E7FD2274FF77
:1001B500FCFDFEFF22E480F8A2D574FF13FC7D80D0
:0301C500E480EFE4
:1002E70002023DE493A3F8E493A34003F68001F2EE
:1002F70008DFF48029E493A3F85407240CC8C33318
:10030700C4540F4420C8834004F456800146F6DFE6
:10031700E4800B0102040810204080900380E47EF3
:10032700019360BCA3FF543F30E509541FFEE493DB
:10033700A360010ECF54C025E060A840B8E493A3A2
:10034700FAE493A3F8E493A3C8C582C8CAC583CACD
:10035700F0A3C8C582C8CAC583CADFE9DEE780BE85
:010396000066
:1001C800EF8DF0A4A8F0CF8CF0A428CE8DF0A42E4B
:0201D800FE2205
:1001DA00BC000BBE0029EF8DF084FFADF022E4CC09
:1001EA00F875F008EF2FFFEE33FEEC33FCEE9DECD2
:1001FA00984005FCEE9DFE0FD5F0E9E4CEFD22ED18
:10020A00F8F5F0EE8420D21CFEADF075F008EF2F61
:10021A00FFED33FD4007985006D5F0F222C398FD52
:05022A000FD5F0EA22EF
:0E022F00C3E49FFFE49EFEE49DFDE49CFC22E0
:00000001FF
