:09018B0044554E47005341490060
:09009100120140D2A37F017E00A0
:10009A00E4FDFCC3ED9FEC9E5015E4FBFA0BBB009C
:0F00AA00010AEB647B4A70F50DBD00010C80E488
:0100B9002224
:07019400D2A3C2A0D2A222F7
:10015900E4FEEF25E0FFD2A030A203430701C2A0CD
:040169000EBE08EED0
:01016D00226F
:10014000E4FEC2A0EF30E704D2A18002C2A1D2A097
:08015000EF25E0FF0EBE08EAF6
:010158002284
:10012400C2B6C2B58F90C2B7D2B7EFD3940250040F
:0C0134007F0280027F017E0012009A22F0
:10016E00C2B6D2B58F90C2B7D2B77F017E00020061
:01017E009AE6
:0600E2008B0B8A0C890D56
:1000E800E4F50EAB0BAA0CA90D850E8275830012E0
:0C00F8000064FF600712016E050E80E737
:0101040022D8
:060105008B088A09890A3B
:10010B00BF01047F8080027FC0EF2D14FF120124FA
:09011B00AB08AA09A90A0200E2DE
:1000BA007F301201247F057E0012009A7F301201E0
:1000CA00241200967F301201247F381201247F0106
:0800DA001201247F0C02012435
:100003001200BA120194C2A37FFF120140E4FF124F
:100013000140D2A37F647E0012009AC2A37F011223
:10002300009A7F9F1201407F03120091C2A37FBFFA
:10003300120140E4FF120091C2A0C2A31F120140AB
:100043001201598F0FD2A3E50F7BFFB4FA067A0191
:10005300798B80047A0179907D027F0112010580FA
:01006300FE9E
:0300000002017F7B
:0C017F00787FE4F6D8FD75810F020003C4
:10006400BB010CE58229F582E5833AF583E0225051
:1000740006E92582F8E622BBFE06E92582F8E2229B
:0D008400E58229F582E5833AF583E49322B5
:00000001FF
