:020000040800F2
:1000000050CC00200D02000815020008170200085D
:10001000190200081B0200081D0200080000000071
:100020000000000000000000000000001F020008A7
:1000300021020008000000002302000895010108C9
:1000400027020008270200082702000827020008EC
:1000500027020008270200082702000827020008DC
:10006000270200082702000827020008C917000815
:1000700027020008270200081518000827020008B8
:1000800027020008270200082702000827020008AC
:100090002702000827020008270200087924000828
:1000A00027020008B50601082702000827020008F9
:1000B0003109010861090108270200082702000828
:1000C000270200082702000827020008270200086C
:1000D000270200083117010827020008B11701089C
:1000E000270200082702000827020008270200084C
:1000F000590A010827020008270200082702000801
:1001000027020008270200089509010827020008B5
:10011000270200082702000827020008270200081B
:10012000270200082702000827020008270200080B
:1001300000F002F800F05AF80AA090E8000C82449F
:100140008344AAF10107DA4501D100F04FF8AFF27C
:10015000090EBAE80F0013F0010F18BFFB1A43F0A5
:10016000010318478C690100AC6901000A444FF093
:10017000000C10F8013B13F0070408BF10F8014B06
:100180001D1108BF10F8015B641E05D010F8016B4B
:10019000641E01F8016BF9D113F0080F1EBF10F8AF
:1001A000014BAD1C0C1B09D16D1E58BF01F801CBD2
:1001B000FAD505E014F8016B01F8016B6D1EF9D555
:1001C0009142D6D37047000000230024002500266A
:1001D000103A28BF78C1FBD8520728BF30C148BFAA
:1001E0000B6070471FB51FBD10B510BD00F0CEF9F4
:1001F0001146FFF7F7FF14F073FB00F0ECF903B4BE
:10020000FFF7F2FF03BC00F0EDF90000094880475A
:1002100009480047FEE7FEE7FEE7FEE7FEE7FEE7E8
:10022000FEE7FEE7FEE7FEE704480549054A064B00
:1002300070470000ED03010831010008600B002049
:1002400050CC0020600D002050C8002053EA020C62
:1002500000F069802DE9F04B4FF00006002B1FBF26
:10026000B3FA83F503FA05F424FA05F65E4012BFEB
:100270001643B2FA82F502FA05F4C5F120051EBF55
:1002800022FA05FC44EA0C04203556EA044C4FEAF5
:10029000144418BF641C4FF000084FF0000990424E
:1002A00071EB030C39D3002919BFB1FA81F701FAB8
:1002B00007F6B0FA80F700FA07F6C7F120071EBF6D
:1002C00020FA07FC46EA0C062037B6FBF4FCA7EB45
:1002D0000507103F07F01F0BCBF120060CFA0BFBB4
:1002E0002CFA06F644BFB3460026202FA4BF5E4674
:1002F0004FF0000B5BEA060C08BF4FF0010B19EB47
:100300000B09ABFB027C48EB0608C01B06FB02CCCA
:100310000BFB03CC71EB0C01C1E70B4602464146D7
:100320004846BDE8F08B13B54FF000004FF00001D8
:10033000AFF30080BDE81C407047B2F120030AD53E
:10034000C2F1200301FA02F120FA03F300FA02F0ED
:1003500041EA0301704700FA03F14FF000007047D3
:10036000B2F120030AD5C2F1200320FA02F001FA0B
:1003700003F321FA02F140EA0300704721FA03F087
:100380004FF00001704740EA010310B59B070FD101
:10039000042A0DD310C808C9121F9C42F8D020BAF5
:1003A00019BA884201D9012010BD4FF0FF3010BDAD
:1003B0001AB1D30703D0521C07E0002010BD10F87B
:1003C000013B11F8014B1B1B07D110F8013B11F841
:1003D000014B1B1B01D1921EF1D1184610BD032AFF
:1003E00040F2308010F0030C00F0158011F8013B52
:1003F000BCF1020F624498BF11F801CB00F8013B39
:1004000038BF11F8013BA2F1040298BF00F801CBFC
:1004100038BF00F8013B11F0030300F07C80083A7C
:10042000C0F0088051F8043B083A51F804CBA0E82A
:100430000810F5E7121D5CBF51F8043B40F8043B7F
:10044000AFF30080D20724BF11F8013B11F801CBB4
:1004500048BF11F8012B24BF00F8013B00F801CB85
:1004600048BF00F8012B70474FF000020429C0F08C
:10047000128010F0030C00F01B80CCF1040CBCF1D6
:10048000020F18BF00F8012BA8BF20F8022BA1EB28
:100490000C0100F00DB85FEAC17C24BF00F8012B0D
:1004A00000F8012B48BF00F8012B70474FF0000205
:1004B00000B5134694469646203922BFA0E80C505A
:1004C000A0E80C50B1F12001BFF4F7AF090728BF35
:1004D000A0E80C5048BF0CC05DF804EB890028BFB1
:1004E00040F8042B08BF704748BF20F8022B11F0DA
:1004F000804F18BF00F8012B704770477047704756
:1005000010B500F03BF8006810BD10B5044600F0CF
:1005100035F8046010BD10B5203AC0F00B80B1E88A
:100520001850203AA0E81850B1E81850A0E8185028
:10053000BFF4F5AF5FEA027C24BFB1E81850A0E831
:10054000185044BF18C918C0BDE810405FEA827C4B
:1005500024BF51F8043B40F8043B08BF7047D20762
:1005600028BF31F8023B48BF11F8012B28BF20F803
:10057000023B48BF00F8012B70470000004870475D
:10058000000B002000487047000B00207546FFF765
:10059000F9FFAE4605006946534620F00700854640
:1005A00018B020B5FFF740FEBDE820404FF0000630
:1005B0004FF000074FF000084FF0000B21F007014B
:1005C000AC46ACE8C009ACE8C009ACE8C009ACE88E
:1005D000C0098D4670470446AFF300802046FFF700
:1005E0000EFE704701491820ABBEFEE72600020050
:1005F0000029816802D041F0010101E021F00101F0
:10060000816070470029816802D041F4807101E067
:1006100021F4807181607047014600208968490794
:1006200000D501207047014600208968090700D5E0
:100630000120704710B542680E4B0C791A400B68C8
:1006400042EA04221343436082680B4B1A40D1E90B
:10065000024323434C7942EA440213438360C26A53
:10066000097C22F47002491EC9B242EA0151C162FA
:1006700010BD0000FFFEF0FFFDF7F1FF70B507268B
:1006800009290AD9C568A1F10A0404EB4404A6406B
:10069000B543A3401D43C56007E0056901EB410474
:1006A000A640B543A3401D4305611F23072A09D275
:1006B000446B521E02EB820293409C4391400C43D8
:1006C000446370BD0D2A09D2046BD21F02EB820273
:1006D00093409C4391400C43046370BDC46A0D3A3F
:1006E00002EB820293409C4391400C43C46270BD74
:1006F000816841F008018160704700002DE9F047F2
:10070000DFF83C8198F80000002855D0DFF83491DC
:1007100000244FF47A6A44F61C75274609F58C7656
:1007200004EB8401002009EB810356F8242033F800
:100730001010401C1144C0B246F824100A28F4D30B
:1007400008460A21B0FBF1F20E2C2DD2DFE804F0AE
:10075000070D151C24363D444B525A6169705146B1
:10076000204612F0A9FD384905E05146204612F016
:10077000A3FD3549891C485316E05146204612F026
:100780009BFD3149091DF6E75146204612F094FDC4
:1007900001462D48801D06E05146204612F08CFD92
:1007A000014629480830415346F82470641CE4B2DD
:1007B0000E2CB5D388F80070BDE8F087514620466E
:1007C00012F07AFD20490A31D5E75146204612F051
:1007D00073FD1D490C31CEE75146204612F06CFDE9
:1007E00019490E31C7E75146204612F065FD1649FA
:1007F0001031C0E75146204612F05EFD0146124816
:100800001230D0E75146204612F056FD0E49143101
:10081000B1E75146204612F04FFD01460A48163016
:10082000C1E75146204612F047FD07491831A2E7BB
:100830005146204612F040FD03491A319BE7000063
:100840001C0100206409002000100020002981689C
:1008500002D041F4A00101E021F4A00181607047C1
:10086000816841F0040181607047000070B592B06A
:1008700001214FF406700EF081FB012108460EF0B5
:1008800059FBCF20ADF8400000248DF8434010A95B
:10089000674803F0BBFA0320ADF840008DF84340F1
:1008A00010A9644803F0B2FA3F20ADF840008DF87B
:1008B000434010A9604803F0A9FA604D284600F0B3
:1008C000D3FF5F4800905F4801A90E2651C18020E8
:1008D000CDE9044040000690800007902020089059
:1008E0000002CDE909046946284601F037F80122E3
:1008F0000221284601F02AF80121284600F0A8FF2D
:1009000001258DF830500B948DF831403004CDE93D
:100910000D048DF83C604A4E0BA94C3E3046FFF763
:1009200089FE072301220A213046FFF7A7FE07238D
:1009300002220B213046FFF7A1FE072303220C21E0
:100940003046FFF79BFE072304220D213046FFF7B8
:1009500095FE0723052200213046FFF78FFE07236F
:10096000062201213046FFF789FE07231A4602219D
:100970003046FFF783FE0723082203213046FFF7A6
:100980007DFE0723092206213046FFF777FE072365
:100990000A2219463046FFF771FE07230B220E216B
:1009A0003046FFF76BFE07230C220F213046FFF77E
:1009B00065FE07230D2208213046FFF75FFE07235F
:1009C0000E2209213046FFF759FE01213046FFF77C
:1009D0000FFE3046FFF78CFE3046FFF724FE00285E
:1009E000FAD13046FFF73CFF3046FFF715FE0028EE
:1009F000FAD101213046FFF705FE1349002041F8E6
:100A00002040401CC0B20E28F9D34FF4A06004F07F
:100A1000C9FB0B208DF844008DF845508DF84640F9
:100A20008DF8475011A804F08BFB12B070BD000088
:100A300000080140000C0140001001400800024085
:100A40004C240140480900207C0A0020104810B5C1
:100A50008178C90717D012F047F9C11700EB51731D
:100A60000C4901EBE30223F00703C31A0A4811788B
:100A7000185C014204D008480830185C014000E0CE
:100A80000143117010BD816D091D816510BD00000D
:100A90006800002000100020C66401080A4901EB2C
:100AA000D00100F007000A780849085C08490242B2
:100AB000887804D0C20702D040F0010001E000F0C5
:100AC000FE0088707047000000100020C664010816
:100AD000680000202DE9F041274D284FA86D3844CB
:100AE000C0F34F0005F0F2F9254ED0B1A86D008893
:100AF00020F4504005F08CF908B100242BE0A86DDB
:100B00000124C1194810C21700EB527006EBE00235
:100B100020F00700C0EB61001A491378405C0340E5
:100B200018E0A86D0024008820F4504005F070F90A
:100B300088B1A86DC1194810C21700EB527006EBBE
:100B4000E00220F00700C0EB61000E49137808397D
:100B5000405C03431370A878C10701D0012C07D073
:100B600000F0FE00A870A86D801CA865BDE8F081AB
:100B700040F00100F6E7000068000020A49FFFF7A6
:100B800078A60020CE6401082DE9F041274D284FBA
:100B9000A86D3844C0F34F0005F098F9254EC0B158
:100BA000A86D0024008820F4504005F031F950BBB6
:100BB000A86DC1194810C21700EB527006EBE00295
:100BC00020F00700C0EB61001B491378405C034034
:100BD00018E0A86D008820F4504005F019F998B18C
:100BE000A86D0124C1194810C21700EB527006EB22
:100BF000E00220F00700C0EB61000F4913780839CC
:100C0000405C0343137000E00024A878C10701D0C2
:100C1000012C07D000F0FE00A870A86D801CA8650C
:100C2000BDE8F08140F00100F6E700006800002018
:100C3000A49FFFF778A60020CE6401080A4901EBC3
:100C4000D00100F007000A780849085C0849024210
:100C5000887804D1C20702D040F0010001E000F022
:100C6000FE0088707047000000100020C664010874
:100C70006800002010B5144CA078C1072046806D94
:100C80001ED0E06512F056FE4FF47A7390FBF3F13C
:100C900003FB11000A03642390FBF3F103FB110033
:100CA00042EA01220A2390FBF3F142EA011203FB1C
:100CB000110012B202436266BDE8104014F038B869
:100CC0000830A06510BD000068000020008840BA10
:100CD0007047000010B5144CA078C1072046806D05
:100CE0001ED0E06512F026FEC0F303324FF47A7195
:100CF0004A43C0F3032101EBC10303EB011102EBF3
:100D00008102C0F3031101EB810102EB410100F00C
:100D10000F00084400B26066BDE8104014F008B847
:100D20000830A06510BD0000680000202DE9F047E4
:100D3000DFF888C09CF80210C9070FD09CF8091092
:100D4000204FDFF87C9000F0070507EBD002012967
:100D500006D0107819F8051008431070BDE8F08728
:100D6000DFF85C80002008F10808DFF85CA09CF840
:100D70000B600CE03AF8103007EBD30103F00703E7
:100D80000C7818F803301C40401C0C70C0B2B04204
:100D9000F0D9BCF8200007EBD00100F007000B7879
:100DA00018F8000003400B70107819F8051008437C
:100DB000107000208CF80B00D0E7000068000020C5
:100DC000C664010800100020380600202DE9F0411B
:100DD0001D4DA878C00733D012F0ACFD686613F043
:100DE000A7FF12F0A7FD0746A86D4FF6FF76001F7C
:100DF0000124A86515E0E87901281BD006EA440023
:100E0000E881A86D0838A86512F094FD6866A87995
:100E1000012812D006EA4400E88113F089FF641C1F
:100E200024B2BC42E7DBA86D001DA8650020E88164
:100E3000BDE8F08106EA0410E2E706EA0410EBE7F9
:100E4000A86D0C30A865F3E7680000200346012177
:100E500001E05B084900002BFBD121B1491E02468D
:100E6000002012F05DB84FF0FF307047F0B5124D22
:100E70008023AA6D921CAA651188B3EB112F19D19A
:100E80000E4B3E21A3F5017403EB410733F81160CB
:100E90007E8054F8216004EB8107491E7E6011F0CA
:100EA000FF01F1D1A978198005494008226051F865
:100EB0002000A865F0BD0000680000207C0500202F
:100EC00074010020074A8023916D891C916509886F
:100ED000B3EB112F05D10449400851F82000801CC4
:100EE0009065704768000020740100202DE9F047EC
:100EF000314CA078C0075AD012F01CFD814612F088
:100F000019FD804611F0F0FEFF2100B22170C117DB
:100F10002A4D00EB517105EBE10421F00701284A4D
:100F2000471A2378B95C00F1010C0B402370411C77
:100F3000CB1701EB537605EBE60326F00706ACEB87
:100F40000606197816F802C001EA0C011970811C16
:100F50004FEAE17C01EB5C7105EBE105801C21F0BF
:100F60000701411A95F800C0885C4246DFF85080BE
:100F70000CEA000C85F800C0A8F10808914507DDCF
:100F8000207817F8081040EA01002070BDE8F087CB
:100F900006D1187816F8081040EA01001870F5E735
:100FA00011F808004CEA000C85F800C0EEE7A06DCF
:100FB00000F10C00A065E9E76800002000100020A7
:100FC000CE6401082DE9F04704F0E0FE314CE8B3AF
:100FD00012F0B0FC814612F0ADFC804611F084FEA8
:100FE000FF2100B22170C1172B4D00EB517105EBB1
:100FF000E10421F00701294A471A2378B95C00F17E
:10100000010C0B402370411CCB1701EB537605EB11
:10101000E60326F00706ACEB0606197816F802C0C0
:1010200001EA0C011970811C4FEAE17C01EB5C7153
:1010300005EBE105801C21F00701411A95F800C07D
:10104000885C0CEA000C85F800C000E01DE0424618
:10105000DFF848809145A8F1080807DD207817F8E7
:10106000081040EA01002070BDE8F08706D118782A
:1010700016F8081040EA01001870F5E711F80800AA
:101080004CEA000C85F800C0EEE7A06D00F10C0002
:10109000A065E9E76800002000100020CE64010888
:1010A00070B50A4DFF22134605F5807605E010F86D
:1010B000014B54402A5D5A40335D0C00A1F10101FF
:1010C00089B2F4D143EA022070BD000069670108CB
:1010D0000F4B996D11F8020BC0F34600D883996548
:1010E00009880A0A862A02D0882A0AD103E0C9B2EE
:1010F00000EBC11004E0C9B200EBC11000F57A703A
:10110000D8839878C00701D013F03AB812F0F8BE2F
:101110006800002003480021016041604021103038
:10112000FFF7C4B9F8080020084B10B51B8900224E
:10113000C01C03215B1E05E010F8014B491C224432
:10114000D2B289B29942F7DB104610BD1E010020D1
:10115000002804D0012801D0022801D000207047C7
:101160000048704748AE0020044B012282401868B6
:1011700009B1104300E090431860704700740040CC
:1011800030B5084C236840F6FE7282409343D1E9A3
:1011900000252A43D1E902510D432A4382401A43D4
:1011A000226030BD00740040034A08B51044083086
:1011B0000090016008BD000000740040034A08B5BB
:1011C000104414300090016008BD0000007400401D
:1011D0000209054B012090400029196801D0014304
:1011E00000E0814319607047047400400A4810B55C
:1011F00001880020FFF7D8FF0748801C01880020E5
:10120000FFF7DCFF01210020FFF7E2FF0121BDE82D
:1012100010401020FFF7DCBFEC66002010B586B050
:10122000012104200DF0AAFE012148070DF08EFED9
:101230003020ADF8100000248DF8134004A919489F
:1012400002F0E4FD3C20CDE9000402200390694651
:101250000020FFF795FF69461020FFF791FF01215D
:101260000020FFF781FF01211020FFF77DFF012102
:101270000020FFF7ADFF01211020FFF7A9FF00219B
:101280000846FFF791FF00210846FFF797FF01216D
:101290000020FFF79DFF01211020FFF799FF06B006
:1012A00010BD0000000801402DE9F0472C49887866
:1012B000C2070846806D4ED08946C86512F06CF8AA
:1012C0000A2190FBF1F393FBF1F401FB130201FB04
:1012D0001433642490FBF4F494FBF1F501FB154402
:1012E0004FF47A7590FBF5F595FBF1F601FB165579
:1012F00042F2107690FBF6F696FBF1F701FB1766CB
:10130000184F90FBF7F797FBF1FC01FB1C77DFF818
:1013100058C090FBFCFC9CFBF1F801FB18CCDFF8FB
:101320004C8090FBF8F090FBF1F801FB18000CEBFF
:101330000010000600EB075000EB064000EB053004
:1013400000EB042000EB03108118C9F86410BDE81D
:10135000F04700F0CBBC10308865BDE8F087000096
:1013600068000020A086010040420F00809698008F
:101370002DE9F0473C498878C2070846806D6FD058
:101380008946C86512F008F8C21700EB127121F007
:101390000F03C51A0911CB1701EB137323F00F03C9
:1013A000CE1A00EB12610912CB1701EB137323F075
:1013B0000F03CF1A00EB12510913CB1701EB137374
:1013C00000EB124023F00F030014A1EB030CC21733
:1013D00000EB127121F00F030911CC1701EB14740B
:1013E00024F00F040C1B00EB1261C31A00EB125027
:1013F0000013C21700EB127222F00F020912801ABA
:101400004FEAE178194A01EB187828F00F085043A9
:10141000A1EB080143F60952514300EB811040F65D
:1014200035414C4340F271214B4300EB44100CEB2F
:101430004C0100EB0310C1EBCC1100EBC10007EB3A
:10144000C70101EB071100EB810006EB860100EB01
:1014500041004119C9F86410BDE8F04700F046BCEE
:1014600010308865BDE8F0876800002080969800FD
:101470002DE9F041304CA078C00758D011F08CFF16
:10148000606311F089FFA06311F02EFCFF2100B210
:101490002170C11700EB51722849471C01EBE20390
:1014A00022F00702A0EB020E254A1D781EF802600A
:1014B00035401D70451CEE1705EB567601EBE60531
:1014C00026F00706BE1B95F800C0B75C0CEA070CB7
:1014D000871C85F800C04FEAE77C07EB5C7701EBDF
:1014E000E701801C27F00707C01B91F800C0825C51
:1014F0000CEA020C81F800C0D4E90D74104A083AD5
:10150000A74207DD18781EF8021040EA01001870A3
:10151000BDE8F08105D12878B15C40EA010028706F
:10152000F6E7805C4CEA000C81F800C0F0E7A06DA3
:1015300000F11800A065EBE7680000200010002013
:10154000CE6401082DE9F04104F020FC304CE0B3FA
:1015500011F022FFE06311F01FFF206411F0C4FBC3
:10156000FF2100B22170C11700EB51722949471CBD
:1015700001EBE20322F00702A0EB020E264A1D78DF
:101580001EF8026035401D70451CEE1705EB5676BF
:1015900001EBE60526F00706BE1B95F800C0B75C18
:1015A0000CEA070C871C85F800C04FEAE77C07EBC4
:1015B0005C7701EBE701801C27F00707C01B91F85F
:1015C00000C0825C0CEA020C00E01CE081F800C064
:1015D000D4E90F74104A083AA74207DD18781EF8BC
:1015E000021040EA01001870BDE8F08105D12878AA
:1015F000B15C40EA01002870F6E7805C4CEA000C20
:1016000081F800C0F0E7A06D00F11800A065EBE7DD
:101610006800002000100020CE64010870B5144C52
:10162000A078C0071FD011F0B7FE064611F0B4FE37
:1016300096FBF0F100FB116004F16C052E1D296092
:10164000306011F051FBA16D091DA16509492A887F
:1016500021F8102001EB40006A88428031888180A7
:101660007188C18070BDA06D1830A06570BD00008C
:10167000680000200010002070B5134DA878C10745
:101680002846806D1CD00830A86512F053F984B24A
:10169000A86D0C38A86520460EF0B8FA611E07291F
:1016A0000BD80A4911F814100140012088406866DF
:1016B0000EF024F9A86D001D03E0A86D083000E0CD
:1016C0000C30A86570BD000068000020D6640108D9
:1016D0002DE9F041154DA878C00722D011F05CFE2D
:1016E000686600F003FB11F057FE06B2A86D4FF6D6
:1016F000FF7708380124A8650CE0A879012812D0EA
:1017000007EA8400E881A86D0838A86500F0EEFAC1
:10171000641C24B2B442F0DBA86D001DA865002053
:10172000E881BDE8F08107EA4410EBE7680000209B
:1017300070B5214C214DA06D2844C0F34F0004F03A
:10174000C5FB0028A0781E4A4FEAC07001D0E8B15E
:101750002EE068B3A06D41194810C31700EB537019
:1017600002EBE00220F00700C0EB6100154913789E
:10177000405C0343137011F00FFEA16D0839801C0B
:10178000A1656066BDE8704000F0B0BAA06D411977
:101790004810C31700EB537002EBE00220F0070083
:1017A000C0EB6100074913780831405C03401370B7
:1017B000A06D0830A06570BD68000020A49FFFF7F1
:1017C00078A60020C664010870B5022000F034F845
:1017D0000E4C2078002818D10D4A617802F11C03C4
:1017E00000EB800632F8105003EB8606401CC0B2B6
:1017F00026F811500E28F3D3491CC8B260700A288D
:1018000003D3002060700120207070BD1C010020F7
:10181000480900200648416841F400514160416C8C
:101820004FF6FE7211404164024901200870704772
:10183000000002401E010020C10002D502490860DC
:1018400070470249486070470404024000000240AB
:101850000029016802D041F0010102E04FF6FE725A
:10186000114001607047000001684FF6FE721140A0
:1018700001600021016041608160C1603149314AED
:101880000839904203D1486840F00F0006E02D4A25
:101890001432904204D1486840F0F000486070472C
:1018A000284A2832904203D1486840F47060F5E736
:1018B000244A3C32904203D1486840F47040EDE73E
:1018C000204A5032904203D1486840F47020E5E746
:1018D0001C4A6432904203D1486840F47000DDE74E
:1018E000184A7832904203D1486840F07060D5E7DA
:1018F000154A111F904203D1086840F00F0006E01E
:10190000114A1432904204D1086840F0F000086097
:1019100070470D4A2832904203D1086840F4706045
:10192000F5E7094A3C32904203D1086840F4704020
:10193000EDE7054A50329042EAD1086840F4702041
:10194000E5E700000800024008040240002A02689F
:1019500001D00A4300E08A430260704730B5026854
:1019600047F6F0739A430C6A8B682343D1E9044528
:101970002C4323438C692343CC6923434C6A234380
:101980008C6A234313430360CA6842600A6882601A
:101990004968C16030BD000070B5124EB078C00714
:1019A0001CD011F0F9FC054611F0F6FC454306F198
:1019B0008804E817C4E9005011F096F9B16D091DCB
:1019C000B1650949228821F8102001EB40006288A6
:1019D0004280A1888180E188C18070BDB06D1830DF
:1019E000B06570BD68000020001000202DE9F041B6
:1019F0003C4EB06D418A008A61F31F2085B2B5F577
:101A0000A06F2DD0A5F5A060013869D1364C374FB5
:101A10004FF00008A580B078C1073248806D00F112
:101A2000100040D0216803293BD011F0B5FCE061E3
:101A300011F0B2FCC4E90405206818B1D4E907012B
:101A400081424AD00123236007EBD501E069284A8F
:101A5000206205F007050878525D104203D03CE093
:101A6000214C603CD3E71043087023722149E069A0
:101A7000884297F8F20102D340F0200001E000F024
:101A8000DF0087F8F20197F8E301012100F0DF00A1
:101A900087F8E301C4F80C80237220460DF08CF81F
:101AA0001BE0B06519E0B0652068B0B16069A8427C
:101AB00013D10F4B07EBD50005F00702083301786F
:101AC0009A5C1140017000212046C4F800800DF09E
:101AD00073F860212046FEF7E9FCB06D001DB0658B
:101AE000BDE8F08168000020980800200010002068
:101AF000C6640108400D0300800B07D001280BD0FD
:101B000002280FD0032813D0002070470D480E493B
:101B100041F63A02008811E00C480B4941F66E127A
:101B200000880BE00948001D008800EB004070476A
:101B300006480549083041F672120088895A00EBC0
:101B40000140704738280020001000206C29002038
:101B5000800B09D001280ED010490228098812D024
:101B6000032813D0002070470C480D490A3841F66D
:101B70007A12008805E009480949801F41F67E1263
:101B80000088895C05E00548801E01E00348801C50
:101B9000008800EB014080B27047000082290020DD
:101BA000001000202DE9F05F324EB078C0075CD005
:101BB00011F0F2FB834611F0EFFB054611F0ECFB50
:101BC000044611F091F8FF213170C1172A4B00EB48
:101BD000517103EBE10221F00701284EA0EB010A4D
:101BE00017781AF806100F401770411CCF1701EB39
:101BF000577803EBE801471C28F00708A7EB080813
:101C000091F800C018F806700CEA070C871C81F8E0
:101C100000C04FEAE77C07EB5C7C801C2CF00707D8
:101C200003EBEC03C01B93F80090865D09EA0609FC
:101C3000124E83F80090083EA34506DD10781AF88E
:101C4000061008431070BDE8F09FAC4205DC087830
:101C500018F8062010430870F5E7A542F3DA805D16
:101C600049EA000983F80090EDE7B06D2030B065D7
:101C7000E9E700006800002000100020CE640108A1
:101C800030B5194CA16D31F8022B150A803D092D94
:101C900015D2DFE805F005140B1416141C142200ED
:101CA00000EB022080B24FF4E06204E000EB02207F
:101CB00080B24FF4006202EB5000A082A165A08ABE
:101CC00030BD00EB022080B24FF4A062F3E700EBDE
:101CD000022080B24FF48052EDE700EB022080B288
:101CE00041F2E832E7E70000680000202DE9F04704
:101CF000784CDFF8E481DFF8E491A36DDFF8E0A130
:101D000033F8021BA365188801F47F4242EA1026CB
:101D10004FF6FF72CDB202EA0022256615434AF261
:101D20008742B11A96426ED033DC274648F2806C67
:101D3000796EFF89A6EB0C02664560D010DC02F5D7
:101D400000764FF00105112E7BD2DFE806F0377ADE
:101D50003A7A437A467A497A4C7A4F7A527A5500DF
:101D600041F6026CA2EB0C0062456FD008DC022A3F
:101D70004AD0042A4FD0062A51D0082A61D152E015
:101D8000012867D0022861D0032863D0042858D1E5
:101D90005CE00A295ED007DC53D2DFE801F052573D
:101DA0005B575B575B575B57A1F2FB11082948D281
:101DB000DFE801F05458626670747E82C2B28020FF
:101DC00001E0C2B2822002F0EFFFA06D801CA0658E
:101DD000A57136E0C2B28420F5E7C2B28620F2E7F0
:101DE000C2B28820EFE7C2B28A20ECE7C2B28C20F0
:101DF000E9E7C2B28E20E6E7C2B29020E3E7394AB3
:101E0000E819104403E025E0E81900F120209B1CAC
:101E10000160A36515E0EA1902EB0800F7E7EA198B
:101E200002EB0900F3E7EA1902EB0A00EFE720668C
:101E3000F0B2C5F30522616E02F0B6FFA06D801C02
:101E4000A065A06D001DA065BDE8F0872846FFF7DE
:101E500053FEECE72846FFF77BFEE8E72846FFF74E
:101E60004BFE02E02846FFF773FEC5F30D0101EBC0
:101E7000400000F1202028E02846FFF73DFE02E068
:101E80002846FFF765FEC5F30D0101EB400101EBAC
:101E900008001AE02846FFF72FFE02E02846FFF769
:101EA00057FEC5F30D0101EB400101EB09000CE009
:101EB0002846FFF721FE02E02846FFF749FEC5F35A
:101EC0000D0101EB400101EB0A00B4F8641089B286
:101ED0000160B3E768000020001A002000300020F5
:101EE000D0370020002800202DE9F04111F054FAED
:101EF000044611F051FA1A4901F174054A7A012A8F
:101F00000BD0AA78012A1FD08A785206120E8A7046
:101F1000844223D142F001001FE08A785206120E5B
:101F20008A7084420DD10B8C0E4E0F4F06EBD306F8
:101F300003F007033678FB5C1E4202D042F0010238
:101F40008A70AA78012A09D1844205D12888C2075B
:101F500002D000F0010000E000208870BDE8F081B0
:101F60006800002000100020C66401082DE9F0413F
:101F700011F012FA044611F00FFA1A4901F1740532
:101F80004A7A012A0BD0AA78012A1FD08A785206F1
:101F9000120E8A70844223DD42F001001FE08A782D
:101FA0005206120E8A7084420DDD0B8C0E4E0F4FBE
:101FB00006EBD30603F007033678FB5C1E4202D023
:101FC00042F001028A70AA78012A09D1844205DD13
:101FD0002888C20702D000F0010000E000208870CD
:101FE000BDE8F0816800002000100020C6640108F0
:101FF0002DE9F04111F0D0F9044611F0CDF91A495C
:1020000001F174054A7A012A0BD0AA78012A1FD05F
:102010008A785206120E8A70844223DB42F0010055
:102020001FE08A785206120E8A7084420DDB0B8CF8
:102030000E4E0F4F06EBD30603F007033678FB5C1A
:102040001E4202D042F001028A70AA78012A09D108
:10205000844205DB2888C20702D000F0010000E0BE
:1020600000208870BDE8F08168000020001000208A
:10207000C66401082DE9F04111F08EF9044611F013
:102080008BF91A4901F174054A7A012A0BD0AA7812
:10209000012A1FD08A785206120E8A70844223DAEF
:1020A00042F001001FE08A785206120E8A708442C4
:1020B0000DDA0B8C0E4E0F4F06EBD30603F0070321
:1020C0003678FB5C1E4202D042F001028A70AA7888
:1020D000012A09D1844205DA2888C20702D000F01B
:1020E000010000E000208870BDE8F0816800002059
:1020F00000100020C66401082DE9F04111F04CF9F0
:10210000044611F049F91F491F4E204F4A7A01F148
:102110007405012A0BD0AA78012A1FD08A785206AA
:10212000120E8A7084422ADC42F0010026E08A788E
:102130005206130E8B7084420DDC0A8C06EBD20C17
:1021400002F007029CF800C0BA5C1CEA020F02D041
:1021500043F001028A70AA78012A10D184420CDC73
:10216000088C06EBD00200F007001278385C0242BF
:1021700003D0287800F0010000E000208870BDE85E
:10218000F08100006800002000100020C6640108F3
:102190002DE9F04111F000F9044611F0FDF81A495B
:1021A00001F174054A7A012A0BD0AA78012A1FD0BE
:1021B0008A785206120E8A70844223D042F00100BF
:1021C0001FE08A785206120E8A7084420DD00B8C62
:1021D0000E4E0F4F06EBD30603F007033678FB5C79
:1021E0001E4202D042F001028A70AA78012A09D167
:1021F000844205D02888C20702D000F0010000E028
:1022000000208870BDE8F0816800002000100020E8
:10221000C66401082DE9F05F364CDFF8DC80374DED
:10222000A078C00762D012F05DFAE06212F05AFAAC
:10223000206310F059FDFF2100B22170C11700EB9F
:10224000517105EBE10721F00701A0EB010B08F14B
:1022500008013A781BF801301A403A70421CD31733
:1022600002EB537205EBE206431C22F00702A3EBDC
:10227000020A96F800C01AF801200CEA020C821C2F
:10228000D31702EB537205EBE205801C22F0070224
:1022900086F800C0A0EB020995F800C019F801000B
:1022A0000CEA000C85F800C0D4E90B0113F0ECFF38
:1022B00006D238781BF8081008433870BDE8F09F44
:1022C000D4E90B0113F074FE05D130781AF8081028
:1022D00008433070F2E7D4E90B0113F0D5FEEDD2DC
:1022E000287819F8081008432870E7E7A06D18301F
:1022F000A065E3E768000020C66401080010002024
:1023000070B5174DA878C1072846806D25D00830D4
:10231000A86511F00FFB84B2A86D0C38A8652046A3
:102320000DF074FC611E072914D80021012303FA63
:1023300001F2024207D00B4830F8140008406866EA
:102340000DF0DCFA03E0491CC9B20829EFD3A86DEF
:10235000001D03E0A86D083000E00C30A86570BDDA
:1023600068000020D66401080948B0F90010094A45
:10237000B2F90000081AB0F5347F02DBA0F5B460B2
:1023800004E010F5347F01DA00F5B4601180704785
:1023900024040040000100204FF08040B0F92410D8
:1023A000084AB2F90200081AB0F5347F02DBA0F542
:1023B000347004E010F5347F01DA00F53470518098
:1023C000704700000001002030B50B4DA88903F0D4
:1023D00073FB0A4901EBD004A88903F06DFB08499F
:1023E00000F00700085C21780840064920700620AC
:1023F00048700120688130BD1E01002000100020BF
:10240000CE640108B4A1002030B5174D174C4FF031
:102410000902A9890846A1F5C041233917D001292D
:1024200018D002291BD003F047FB04EBD004A88985
:1024300003F042FB0E4900F00700085C21780843D6
:1024400020700C49062048700120688130BD84F856
:10245000E021F6E784F8E02100206870F1E70A2027
:1024600084F8E001EDE700001E01002000100020CC
:10247000C6640108B4A1002006480168054814306C
:1024800002681140C90504D5034A01211170811564
:1024900001607047000401402800002001490860E5
:1024A000704700001404014030B51A4A837901686E
:1024B00053B313688B431360111D0B680468A34367
:1024C0000B60017911440B68046823430B60114BC6
:1024D000083319680468A14319601C1D2168056848
:1024E000A94321604179102905D011440A68006888
:1024F00002430A6030BD19680268114319602168FF
:1025000000680143216030BD0079104402688A43AD
:10251000026030BD000401402DE9FC5F2E4D2F4FBD
:102520002F4CA878C00752D012F0DCF8019012F0BE
:10253000D9F8009012F0D6F8834610F0D5FBFF21B1
:10254000297004EBD00600F0070A07F1080233787F
:1025500012F80A100B40411C337004EBD10501F056
:1025600007092B7812F80910801C0B402B7004EB24
:10257000D00400F00708217812F80800014021700B
:102580005946019813F080FE06D2307817F80A10E9
:1025900008433070BDE8FC9F5946019813F074FD64
:1025A0000AD85846009913F06FFD05D8287817F817
:1025B000091008432870EDE75946009813F064FDB0
:1025C000E8D2207817F8081008432070E2E7A86DD9
:1025D0002030A865DEE7000068000020C66401081E
:1025E0000010002010B50F4C2068012809D1207977
:1025F00010B1012803D004E001F0CCFC01E001F0AF
:10260000E9FCA06801280BD1207B28B1012807D163
:10261000BDE8104001F0F8BCBDE8104001F0CABCB4
:1026200010BD0000F808002010B586B00121102070
:102630000CF0A4FC012102200CF088FC01212648AA
:1026400001F030FC4020ADF8100004208DF813009C
:1026500002208DF8120004A9204801F0D7FB4FF4A6
:10266000806002F09FFD1D208DF80C0001208DF888
:102670000D008DF80E008DF80F0003A802F060FD2C
:10268000174C20460EF062FB4FF6FF700021ADF8AC
:102690000400ADF80010ADF80610ADF80210694660
:1026A00020460EF06BFD00230222502120460EF042
:1026B0004EFD012120460EF02EFB01221146204640
:1026C0000EF0C2FC002120460EF017FD012120462D
:1026D0000EF027FB06B010BD000C1A0000100140E0
:1026E0000004004038B5114C20460EF02FFB0021AD
:1026F00020460EF016FB012110200CF03FFC0121BA
:102700000B4801F0CFFB4020ADF8000001208DF810
:10271000020048208DF803006946064801F076FB68
:10272000054800214160C16038BD00000004004040
:10273000000C1A00001001400001002010B586B006
:10274000012120200CF01AFC012108460CF016FC97
:10275000012108460CF0FAFB4FF40040ADF81000E0
:1027600004208DF8130002248DF8124004A921489A
:1027700001F04CFB600202F015FD1C208DF80C00EE
:1027800001208DF80D008DF80E408DF80F0003A884
:1027900002F0D6FC640720460EF0D8FA4FF6FF7020
:1027A0000021ADF80400ADF80010ADF80610ADF84A
:1027B0000210694620460EF0E1FC002120460EF092
:1027C0009CFC00230222502120460EF0C0FC012177
:1027D00020460EF0A0FA0122114620460EF034FCED
:1027E000002120460EF089FC012120460EF099FAC6
:1027F00006B010BD0014014038B54FF080442046AB
:102800000EF0A4FA002120460EF08BFA01210420DC
:102810000CF0B4FBE013ADF8000001208DF80200CD
:1028200048208DF803006946034801F0EFFA034899
:1028300000218160016138BD0014014000010020C9
:1028400010B588B0012110200CF098FB0121022066
:102850000CF07CFB0121204801F024FB4020ADF866
:10286000180004208DF81B0003208DF81A0006A91B
:102870001A4801F0CBFA1A4C20460EF067FA0021F4
:1028800040F29F50ADF80400ADF80010ADF806100E
:10289000ADF80210694620460EF070FC0A231A4675
:1028A000032120460EF00AFB03A80EF0C5FB06200C
:1028B000ADF8140003A920460EF028FB00212046A5
:1028C0000EF01BFC012120460EF02BFA05480121D9
:1028D0000171016008B010BD000C1A000010014029
:1028E00000040040F808002008B5012110200CF079
:1028F00045FB00210D480EF014FA01210C4801F0AF
:10290000D1FA4020ADF8000001208DF802004820E7
:102910008DF803006946074801F078FA064900205F
:102920000880064A1060486108BD000000040040AD
:10293000000C1A000010014000010020CC1C0020F7
:1029400010B588B0012104200CF018FB01210846C5
:102950000CF0FCFA4FF4C040ADF8180004208DF8DC
:102960001B0003208DF81A0006A91A4801F04EFA40
:102970004FF0804420460EF0E9F9002140F29F50CC
:10298000ADF80400ADF80010ADF80610ADF8021077
:10299000694620460EF0F2FB0A231A460321204620
:1029A0000EF08CFA03A80EF047FB0620ADF81400D9
:1029B00003A920460EF0AAFA002120460EF09DFB46
:1029C000012120460EF0ADF9034801210173816019
:1029D00008B010BD00140140F808002008B500211F
:1029E0004FF080400EF09DF9012104200CF0C6FA52
:1029F0004FF4C040ADF8000001208DF802004820DF
:102A00008DF803006946054801F000FA04490020EA
:102A10004880044A1060886108BD0000001401402D
:102A200000010020D41C00202DE9F04100260546BD
:102A3000012827D1002010F08FFA22480F214FF6ED
:102A4000FF72A0F8B810A0F8BA605E214FF40063DE
:102A500020F81120491C89B29942F9D300F00EF9EF
:102A6000194800F07FF8002012F058FB174F01249E
:102A700007EBC42000F076F8641CA4B20A2CF7D34C
:102A800000F0B2F81249022D08D1680347F67E62C1
:102A900021F81060801C80B29042F9D3032D06D13A
:102AA000002021F81060801C80B2BE28F9D30949AB
:102AB0000620487008480121418105218171BDE847
:102AC000F0810000B091002000680008006000085C
:102AD00000100020B4A100201E0100200149C860A0
:102AE000704700000020024070B5A52500F06CF88A
:102AF00000B100254FF43026304600F0CBF8042812
:102B000027D1154C1348A0601448A060206940F0FC
:102B100020002061206940F040002061304600F034
:102B2000B9F841F6EF7604280ED1206941F6DF713D
:102B300008402061206940F01000206108480580AD
:102B40004FF4005000F0A6F8052802D0216931406A
:102B5000216170BD2301674500200240AB89EFCDA4
:102B600000F8FF1F70B505464FF43026304600F0E0
:102B700091F8042811D1094C206940F0020020612D
:102B80006561206940F040002061304600F082F825
:102B9000216941F6FD721140216170BD00200240A3
:102BA00008490420CA68D20701D001207047CA68CA
:102BB000520701D502207047C968C906FBD503201A
:102BC000704700000020024003490020C9698907BE
:102BD00000D5012070470000002002400148006A33
:102BE00070470000002002400248016941F0800166
:102BF0000161704700200240F0B506464FF40057CF
:102C00000D46384600F046F804280CD1064C2069E1
:102C100040F0010020613580384600F03BF8216922
:102C2000BA1E11402161F0BD002002402DE9F8419B
:102C3000064600204FF4005700900D46384600F03D
:102C400029F8042816D10C4C206940F001002061BD
:102C50003580B846384600F01DF8BF1E042806D15E
:102C6000B61C280C00963080404600F013F821690D
:102C700039402161BDE8F881002002400348024943
:102C800041600349416070472301674500200240CD
:102C9000AB89EFCD00B50346FFF782FF02E0FFF7F7
:102CA0007FFF5B1E012803D0002B00D1052000BD53
:102CB000002BF4D1FAE700002DE9F041174DA87878
:102CC000C00727D010F036FE686612F031F810F019
:102CD00031FE0646A86D4FF6FF77001F0124A86558
:102CE0000CE0A879012812D007EA4400E881A86D19
:102CF000001FA86512F01CF8641C24B2B442F0DB7B
:102D0000A86D001DA8650020E881BDE8F08107EAF4
:102D10000410EBE7A86D0C30A865F6E7680000200A
:102D200070B5F64C88262146A06D897804F16805B7
:102D300030F8022BB02A7DD06ADC3D2A7BD023DC20
:102D4000A2F102023B2A77D2DFE802F0F7F6F5F7AC
:102D5000F6F5F4F3F2F1F0EF76EEED76EC76EB7655
:102D6000767676767676EE767676EA76E976E8E7C1
:102D7000E6E5E4E3E276E1E0DF76DEDDDCDBDAD92E
:102D8000D8D7D6D5D4D3D200522A6FD00FDCA2F137
:102D90003E02142A50D2DFE802F0ECEBEAE9E8E761
:102DA000E6E5E4E3E2E1E0DFDEDDDCDBDAD9782A48
:102DB00073D018DC702A71D00CDC622A6FD004DC6E
:102DC000532A6DD0602A37D1E4E3642A69D06A2A95
:102DD00032D1EEE3712A7BD0722A7AD0732A79D06D
:102DE000762A29D1F6E3842A75D008DC7A2A73D0B2
:102DF000802A72D0822A71D0832A1DD1EBE3942AD3
:102E00006DD0A22A6CD0AC2A01D0AE2A14D1EFE347
:102E1000B2F5E97F65D065DCB2F5AB7F63D041DC0C
:102E200040F20F13A2F20F169A425DD01FDCF12A76
:102E30005BD002E0F2E38CE259E00CDCC02A55D012
:102E400004DCB42A01D0B62A51D1E9E3ED2A75D0C9
:102E5000EE2A4CD1F0E3A2F58072013A6FD0022A3B
:102E60006ED0042A6DD0062A41D1F7E378E3272EED
:102E700068D009DCA6F10306082E38D2DFE806F098
:102E8000FDFCDFFBDFFADFF9282E5CD0412E5BD0A2
:102E9000432E5AD0452E2AD1FEE3CEE38EE37EE3C5
:102EA0006EE381E3B2F5E37F74D078DC40F267151E
:102EB000A2F26713AA426FD063DCB2F5B27F6CD086
:102EC00058DCB2F5AE7F69D0B2F5AF7F0FD1F0E339
:102ED00082E38EE39AE3C9E3B4E3C2E3CBE3D4E352
:102EE000D8E3E7E367E0EEE3EEE3EEE3EEE3A6E04C
:102EF0001FE213E207E2F9E1EEE1E8E1E2E1DCE101
:102F0000D6E1C4E1B8E1B2E1ACE1A6E19DE194E132
:102F10008EE187E180E17AE174E169E15EE126E139
:102F200020E108E1F3E0D6E0C9E0CFE0BAE0B4E0A8
:102F3000AEE0A8E098E092E08CE086E0CCE3DEE34F
:102F4000E9E3F5E3F5E3F5E3F5E3F5E3FEE2F3E2C8
:102F5000DBE2C8E2BDE2ADE2A4E295E28AE27FE212
:102F600074E266E25BE250E241E233E224E212E222
:102F70000CE2F3E1A2F58072653A79D0012A5ED1C4
:102F8000F7E35B2B7AD05C2B79D05D2B78D05E2B6E
:102F900055D1EFE3EFE302E0EEE3EEE3EFE3A2F27D
:102FA000C7120B2A4BD2DFE802F0FB4A4AFAF9F8C3
:102FB000F7F6F5F4F30040F2ED13A2F2ED119A42A8
:102FC0007ED012DCA2F2D3121A2A38D2DFE802F045
:102FD000FCFBFA3737F9F8F7F6F5F43737F3F2F187
:102FE000F0EFEE3737EDECEBEAE90F2969D00BDCB7
:102FF000A1F103010C2922D2DFE801F0EFEEED820E
:10300000ECEB2121EAE9E8E740F63863A1F6386203
:10301000994272D009DC102972D012F1150166D0E4
:1030200002296ED014290AD1DDE01B2A6AD01C2A9D
:1030300069D01D2A68D0A2F56742DA3A7AD0022117
:1030400040F6417002F054FF36E0A065BDE87040E4
:1030500011F068BAA065BDE8704011F07FBAA065B4
:10306000BDE8704011F06CBAA065BDE8704008E0A2
:10307000FAE3B5E3A9E39EE395E38BE3F5E3F5E338
:10308000F5E301F033BAA065BDE8704001F0C8B9BE
:10309000A065BDE8704000F075BEA065BDE8704059
:1030A00000F08ABEA0650088010A86290AD08E2910
:1030B00005D1C0B20BF0FEFFA06D801CA06570BDF5
:1030C000F0E3F0E3C0B20CF05DF8F5E7A065BDE811
:1030D00070400CF085B9A065C90717D00088B6EB21
:1030E000102FECD1BDE87040C0B2FDF7EBBEA0657B
:1030F00002F04CFE48B1A06DF0E77EE068000020D1
:10310000FEE310E04BE160E16BE1A06DAAE3A06596
:10311000C907FBD00088B6EB102FD0D1BDE87040B6
:10312000C0B2FDF7A3BEA06502F030FE0028ECD0CF
:10313000A06DEFE7E5E3FE49A1F501720878A07004
:103140001068A0653E2001EB40035B8821F8103039
:1031500002EB80035B6842F82030401E10F0FF0055
:10316000F1D1ACE7A065BDE8704000F017BDF04BB1
:10317000A065803393F8382003EB4200818B458DA6
:10318000A9429CD253F82220491CA265818396E76C
:10319000DAE3D4E3CEE3C8E3C2E3BCE3B6E3ADE3F2
:1031A000A7E3FDE3FDE3FDE3FDE3FDE3FDE3FDE375
:1031B000FDE3FDE3FDE3FDE3FDE3FDE3ECE3E6E337
:1031C000E0E3DAE3D4E3CEE3C8E3F6E3F6E3F6E3E1
:1031D000F6E3F6E3F6E3F6E3F6E3F6E3A065BDE82F
:1031E0007040FDF783BEA065BDE87040FDF7EABE04
:1031F000A065BDE87040FEF73BB9A065BDE8704032
:10320000FEF7A0B9A065BDE870400FF043B8A06517
:10321000BDE87040FEF7C6BCA065C90771D010F0CC
:1032200089FB10E0A065C9076CD010F0B5F812E07A
:10323000A065BDE870400CF015BAA065C907EDD0D7
:1032400010F078FBC043606628E1A065C907EBD0A9
:1032500010F0A2F8C0436066D3E0A065BDE87040FE
:10326000FDF7B4BDA065BDE87040FFF725BDA065C2
:10327000BDE87040FEF72CBAA065C907CED010F0AB
:1032800059FB054610F056FBA16D08390AE0A06510
:10329000C8073FF466AF10F07FF8054610F07CF8E1
:1032A000A16D1039A1656066FEF720FD6566A8E096
:1032B000A065BDE87040FDF7DDBCA065BDE87040CD
:1032C000FDF7F2BFA065BDE87040FDF703BDA06546
:1032D000BDE87040FEF74CB8A065C90773D010F088
:1032E00029FB054610F026FB2844ACE7A065C9077A
:1032F0006AD0E06510F050F8054610F04DF828440B
:10330000A9E7D6E0D4E1A065C9075CD0E06510F07C
:1033100011FB054610F00EFB281A94E7A065C907BB
:10332000E6D0E06510F038F8054610F035F8281AB8
:1033300091E7A065C90746D0E06510F0FBFA0546A5
:1033400010F0F8FA04460FF0EFFC05FB04F1016001
:10335000B5E6A065BDE87040FEF71EBBA065C907D5
:1033600072D0E06510F0E6FA054610F0E3FA044684
:103370000FF0BAFC95FBF4F16E4A00B222F810107F
:1033800004FB115102EB4000418098E6A065BDE8C6
:103390007040FEF743B9A065C90706D162E2A06597
:1033A00002F0F4FC00283FF4B0AE10F0C3FAA16DB7
:1033B000091F401CA16546E7A065C90779D00FF039
:1033C000EBFF401C19E03FE09EE0A065BDE87040C7
:1033D000FEF7AEB9A065C907E0D010F0ABFA401E09
:1033E00058E0A06502F0D2FC0028F6D18DE6A06579
:1033F000C907E3D00FF0D0FF401E6066A06D08380B
:10340000A065BDE87040FEF771BCA065C9071BD080
:1034100010F090FA054610F08DFA054012E0A06514
:10342000C90771D00FF0B8FF05460FF0B5FF054092
:103430003CE7A065C90707D010F07CFA054610F0FC
:1034400079FA0543656629E00C3037E6A065C907BF
:103450005AD00FF0A1FF05460FF09EFF054325E768
:10346000A065C907F0D010F065FA054610F062FAC1
:103470004540E7E7A065C90746D00FF08DFF054638
:103480000FF08AFF454011E7A065C90786D010F00C
:1034900051FA40426066A06D001FA065BDE8704013
:1034A00011F046BCA065C90788D00FF075FF4042F7
:1034B000A3E7B4E0A065C9079BD010F03BFA85B242
:1034C00010F038FA80B225FA00F1C0F11000854002
:1034D00017E0A065C8073FF444AE0FF05DFF054656
:1034E0000FF05AFF1AE0A065C907DDD010F022FAEC
:1034F00085B210F01FFA80B205FA00F1C0F1100099
:10350000C5402943616635E025E1A065C807E2D0E2
:103510000FF042FF05460FF03FFF4042C541656690
:10352000A06D1038A065FEF7E1FBA06DBCE10000C6
:103530007C05002000100020A065C9076FD010F0A6
:10354000F9F985B210F0F6F9C54012E0A065C80798
:10355000C1D00FF021FF05460FF01EFFC540DEE78A
:10356000A065C9075BD010F0E5F985B210F0E2F96B
:1035700085406566A06D0838A06511F0D9FBC4E5EB
:10358000A065C807A7D00FF007FF05460FF004FF9E
:103590008540C4E7A065BDE870400EF0E9BEA065B7
:1035A000BDE87040FEF768B8A065BDE87040FEF762
:1035B000A7BEA065BDE8704000F0F2BFA065C807D7
:1035C00089D010F0B7F912F092F811F031FB12F037
:1035D00061F865E125E053E0A065C80797D00FF0DA
:1035E000DBFE12F084F811F023FB12F053F82AE608
:1035F0005CE0A065C90712D010F09CF912F02CFD18
:10360000286011F059F8A06D001F57E5A065C907A3
:103610004ED00FF0C1FE12F01FFDECE04BE0ADE02C
:103620004EE0F94DA065C90703D010F083F928706A
:1036300045E50A21297015E153E0A065BDE8704019
:1036400001F038BCA0650FF0A7FE05460FF0A4FE00
:10365000A84202D1A078C1076FD133E26EE0A0701A
:103660002DE5A065BDE870400CF050B8A065BDE840
:1036700070400BF005BBA065BDE870400BF01ABAB6
:10368000A065BDE87040FEF7B1B9A065BDE8704027
:10369000FDF7DCB9A06500E0CEE0C9076ED010F000
:1036A00049F9DA4900F00F00085CCCE5C907A065CC
:1036B00004E1D0E04DE1A065BDE870400BF0A0BD95
:1036C000C907A065C0E6BCE05AE00FE0FFE7A065CF
:1036D000BDE8704002F044B9A065BDE87040FEF757
:1036E00099BDA065BDE87040FEF716BFA065C9078B
:1036F00075D010F0F7FF12F08FFC60667CE0A065DB
:10370000C90728D010F0EEFF044610F0EBFF214669
:1037100012F01EFB6FE0A065C9071CD010F0E2FF9D
:10372000044610F0DFFF0146204612F0DFFD62E0A4
:1037300013E065E06DE075E079E0C7E1A065C907D9
:1037400009D010F0CFFF044610F0CCFF0146204610
:1037500012F06CFB4FE01830B0E4A065C907FAD056
:1037600010F0C0FF044610F0BDFF214612F0C0FC6F
:1037700041E08EE0B3E0B7E098E07AE078E065E021
:10378000A065C9072BD010F0ADFF12F0B5FA11F00B
:103790004FFA2EE0A065C9076AD010F0A3FF12F01F
:1037A0003BFC80B276E6A065C90718D010F09AFFFE
:1037B00012F032FC4FE5A065C9077FD010F092FFF0
:1037C00012F09AFA11F0DCF913E0A065C90775D080
:1037D00010F088FF12F090FA0FF088FD09E06DE01C
:1037E000A065C9076AD010F07DFF12F085FA11F0CC
:1037F00065FA11F0E5FC2860BDE8704010F05CBF90
:10380000A065C90750D010F095F8011241EA0020D8
:1038100040E6A065C8073FF4A4AC0FF0BDFD4FEA39
:103820003040EAE5A065BDE870400CF02FBEA06511
:10383000BDE870400DF05EBDA065BDE870400CF0C5
:10384000FDBDA065BDE870400DF018BDA065BDE8E8
:1038500070400DF0E1BCA065C90703D0BDE8704021
:103860000FF042BA001D29E40BE029E02DE031E021
:103870001AE0A065C90717D010F05CF8FDF7E6FA6A
:103880000EE0A065C90719D010F054F8FDF7DEFA74
:10389000E1E4A065C90707D010F04CF800F0CEFBBA
:1038A00080B2D0E405E161E1083007E4A065C90712
:1038B00004D010F03FF800F0C1FBCCE41030C4E5B8
:1038C000A065BDE8704010F0F5BDA065BDE8704092
:1038D00010F0FEBDA065BDE8704010F0CFBDA06542
:1038E000BDE8704010F0D8BDA065BDE8704010F094
:1038F000FDBDA065BDE8704010F006BEA06501E00A
:103900003EE147E1BDE8704000F020BDA065BDE8A4
:10391000704000F069BCA065BDE87040FDF734B9A7
:10392000A065BDE87040FDF7D5B8A065BDE8704062
:1039300001F0E0BCA065BDE8704001F063BCA0658B
:10394000BDE870400FF0AABAA065BDE87040FEF770
:10395000CBBAA065BDE870400FF016BBA065BDE80E
:103960007040FEF703BBA065BDE8704010F030BFAB
:10397000A065BDE87040FEF77DBBA065BDE8704066
:1039800010F0E4BFA065BDE87040FEF701BCA06583
:10399000BDE8704010F05EBFA065BDE8704015E066
:1039A00080E075E067E05CE054E049E041E036E04B
:1039B0002EE01EE016E010E00AE0CEE0C6E0BCE03B
:1039C000B4E0AAE0A2E098E08EE082E0FEF794BBCB
:1039D000A065BDE870400FF019BBA065BDE8704060
:1039E000FEF706BBA0650FF0A5FF05460FF0A2FF8E
:1039F00005E0A0650FF0D0FC05460FF0CDFC854238
:103A00003FF428AE5EE0000033000020F8640108B7
:103A1000A0650FF08FFF05460FF08CFF05E0A06555
:103A20000FF0BAFC05460FF0B7FC85423FF712AE27
:103A300048E0A0650FF07EFF05460FF07BFF05E034
:103A4000A0650FF0A9FC05460FF0A6FC8542FFF625
:103A500001AE37E0A0650FF06DFF05460FF06AFF7D
:103A600005E0A0650FF098FC05460FF095FC854237
:103A70007FF4F0AD26E0A0650FF05CFF05460FF087
:103A800059FF854202DCA078C1071FD1A0787EE0F3
:103A9000A0650FF081FC05460FF07EFC85427FF7A4
:103AA000D9AD0FE0A0650FF045FF05460FF042FFCE
:103AB00005E0A0650FF070FC05460FF06DFC854237
:103AC000BFF6C8ADA07820F00100C8E540F00100C5
:103AD000C5E5A0650FF02EFF05460FF02BFF09E0AE
:103AE000A078C1074AD152E0A0650FF055FC054609
:103AF0000FF052FC854241D0F2E7A0650FF01AFFAB
:103B000005460FF017FF854238DCE9E7A0650FF0A6
:103B100011FF05460FF00EFF05E0A0650FF03CFC1D
:103B200005460FF039FC854228DBD9E7A0650FF088
:103B300001FF05460FF0FEFE05E0A0650FF02CFC2E
:103B400005460FF029FC854218D1C9E7A0650FF0A2
:103B5000F1FE05460FF0EEFE05E0A0650FF01CFC3F
:103B600005460FF019FC854208DDB9E7A0650FF0A6
:103B7000E1FE05460FF0DEFE8542B1DBA078A5E749
:103B8000A0650FF009FC05460FF006FCF4E700F015
:103B9000FE0064E5A0650020607249E570B5114D36
:103BA000A878C0071DD0104C002694F838000628CD
:103BB00003D2401C84F8380001E084F838600FF02C
:103BC000B9FE94F83810401E04EB4101488594F882
:103BD0003810A86D44F8210094F8380004EB400038
:103BE000868370BD68000020FC0500207CB504467B
:103BF00004200D468DF80000401F00200190FFF7C3
:103C00003DF8FEF7EBFF000C0004019006D03520D4
:103C1000FEF764FF4FF00066254415E0FEF764FFF1
:103C20008DF800000E4801680E4A01F4E06111436E
:103C30000160BFF3408FFEE706EBC420FEF792FF62
:103C40008DF80000641CE4B2A54203D99DF8000081
:103C50000428F1D0FEF7C8FF9DF800007CBD0000ED
:103C60000CED00E00400FA052DE9F041174E40F29A
:103C70007C452A4631461648FCF7B1FB154C4FF6F9
:103C8000FF773A462946204600F056FA12490128A5
:103C90002A4608D03046FCF776FB002813D0BDE852
:103CA000F04100F045B80A48FCF799FB20463A4637
:103CB000294600F041FA012805D12946BDE8F04126
:103CC0000348FCF7D1BBBDE8F081000004D0020836
:103CD000B09100200C93002004E002082DE9F0418F
:103CE000114D2C68601C00D10024641C01215A2055
:103CF000FFF77CFFFEF7C2FF21462846FEF796FF3E
:103D0000094D0024094E2D1D40F23E2705EB4400CD
:103D100036F81410FEF770FF641CA4B2BC42F5D351
:103D2000BDE8F041FEF760BF00D00208B09100206E
:103D30002DE9F041114D2C68601C00D10024641C59
:103D400001215C20FFF752FFFEF798FF214628462D
:103D5000FEF76CFF094D0024094E2D1D40F23E2751
:103D600005EB440036F81410FEF746FF641CA4B2BD
:103D7000BC42F5D3BDE8F041FEF736BF00E00208D3
:103D8000B09100200B484FF6FF72018802EA410112
:103D90000180C278521CC27001228270A0F17402AC
:103DA0009378DB0702D041F001010180906D001D86
:103DB00090657047DC0000200949088840080880A9
:103DC000C878401E40B2C870002802DC0020C870CD
:103DD000887003487438816D891C816570470000C4
:103DE000DC00002010B58A0721F003040649120FF9
:103DF00021440F238C6893409C438C608B689040D7
:103E000003438B6010BD000000000140F0B5CC788A
:103E1000002204F00F03E40601D58C7823430C78CC
:103E20004FF00F0C4FF0010EDCB105680E880EFA52
:103E300002F42640A64210D196000CFA06F725EAB5
:103E4000070703FA06F5CE783D43282E02D0482E08
:103E500002D002E0446100E00461521C082AE5D36C
:103E600005600A88FF2A1CD94468002202F108066E
:103E70000EFA06F50E882E40AE420ED196000CFAD0
:103E800006F7BC4303FA06F7CE783C43282E00D150
:103E90004561CE78482E00D10561521C082AE5D331
:103EA0004460F0BDF0B5144C002801DAE36900E08D
:103EB0006368450D2E0185B2C0F30157B540C0F3CC
:103EC0000342032F05D0C6020AD503269640B3430A
:103ED00007E023F07062636823F07063636002E0C0
:103EE000AB4343F0706201B12A43002801DAE2617A
:103EF000F0BD6260F0BD000000000140416170470C
:103F000000220144B1F57A7F01D202463FE0B0F5CC
:103F1000A06F05D3B1F5B76F02D2A0F5A06035E070
:103F2000B0F5C06F05D3B1F5E06F02D2A0F5C06067
:103F30002CE0B0F5006F06D340F6FC53994202D84E
:103F4000A0F5006022E04FF47063B0F5606F04D319
:103F5000994202D2A0F5606018E0984205D3B1F50D
:103F6000805F02D2A0F5706010E0B0F5205F05D34D
:103F7000B1F5385F02D2A0F5205007E0B0F5806FB0
:103F800005D3B1F5986F02D2A0F5806082B210B26D
:103F90007047000010B504480CF0A9FF03494968B8
:103FA00008440349086010BD0004004000010020DF
:103FB000901C002010B54FF080400CF098FF034992
:103FC000896808440249086010BD00000001002013
:103FD0009C1C002000B5FEF7C7F907494A69104448
:103FE000486106490A78064989790A42054901D09B
:103FF000086000BD8010FBE700010020F8110020E0
:10400000C6640108CC1C002000B5FEF7C5F90749BD
:104010008A691044886106490A78064989790A4202
:10402000054901D0086000BD8010FBE700010020B9
:10403000F8110020C6640108D41C002003460121A9
:1040400001E05B084900002BFBD121B1491E02466B
:10405000002010F09FBB4FF0FF30704702494CF634
:10406000CC400860704700000030004002494AF62A
:10407000AA200860704700000030004001494860F5
:104080007047000000300040014988607047000020
:1040900000300040014908607047000000300040D7
:1040A00010B586B0012109200AF068FF01218804BB
:1040B0000AF04CFF4FF48060ADF8100018208DF826
:1040C000130003201A4C8DF8120004A92046FFF7B4
:1040D0009DFEE114ADF8101004218DF8131004A911
:1040E0002046FFF793FE4FF4165000900020ADF8E5
:1040F0000400ADF80600ADF80800ADF80C000C2087
:104100000C4CADF80A00694620460DF0B1FB0122C7
:1041100040F2255120460DF092FB012120460DF082
:1041200056FB402120460DF049FB06B010BD0000B3
:10413000000C01400048004070B50026344633466C
:1041400070B9701E70BD30F81450954206D11D46EE
:104150005B1CDBB20A2D02D9012603E00023641C9C
:104160008C42F0D3304670BDF0B51D4E1B4906EBB6
:10417000D00700F0070C0A4638781A4F927801F100
:1041800074054C7A520617F80CC0120EAB7800EA90
:104190000C00012C07D0012B15D08A7000281BD0F1
:1041A00042F0010017E08A7058B10C8C06EBD4067F
:1041B00004F0070436783C5D264202D042F001024A
:1041C0008A70012B08D128B12888C20702D000F0DC
:1041D000010000E000208870F0BD000068000020B1
:1041E00000100020C66401082DE9F041324C334F25
:1041F000A06D3844C0F34F0001F068FE304D314EE1
:10420000B0B3607A0128A0784FEA4000A070A06D9A
:10421000008820F4504003D001F0FAFD90B146E050
:1042200001F0F6FDE8BB208C274901EBD00100F03E
:1042300007000978305C014239D0A07840F00100D5
:10424000A07022E0A07840F00100A070A06DC1191C
:104250004810C21700EB527005EBE00220F0070097
:10426000C0EB6100174913780831405C03401DE042
:10427000FFE7A078400000F0FE00A070A06D00886D
:1042800020F4504001F0C4FD58B1A06DC119481090
:10429000C21700EB527005EBE00220F00700137824
:1042A00000E004E0C0EB6100805D03431370A06D8B
:1042B000801CA065BDE8F08168000020A49FFFF786
:1042C00078A60020C664010800100020F0B51D4D3E
:1042D0001B4905EBD00600F0070430780A461A4E59
:1042E000927801F17403345D4F7A5206120E9B7876
:1042F0002040012F07D0012B15D08A7000281DD136
:1043000042F0010019E08A7058B90C8C05EBD40515
:1043100004F007042D78345D254202D042F00102FA
:104320008A70012B0AD1064A7432128818B1D0075C
:1043300001D0002001E002F001008870F0BD000013
:104340006800002000100020C66401082DE9F0413B
:104350002E4C2F4FA06D3844C0F34F0001F0B6FD36
:104360002C4DD0B1A0784000A070A06D008820F442
:10437000504001F04DFDA0BBA06DC1194810C217FF
:1043800000EB527005EBE00220F00700C0EB61008B
:1043900021491378405C034022E01F4E607A083EBA
:1043A0000128A0784FEA4000A070A06D008820F49A
:1043B00050401BD001F02CFD98B1A07840F00100D6
:1043C000A070A06DC1194810C21700EB527005EB28
:1043D000E00220F00700C0EB61001378805D03432A
:1043E0001370A06D801CA065BDE8F08101F010FD88
:1043F0000028F6D0208C094901EBD00100F007001D
:104400000978305C0142D8D1EBE700006800002059
:10441000A49FFFF778A60020CE64010800100020BA
:104420002DE9F0412C4C2F4F2C4DA0782C4EC1077C
:104430002046806D3844C0F34F0013D001F046FD94
:10444000C0BBA06DC1194810C21700EB527005EB3C
:10445000E00220F00700C0EB61001378805D0343A9
:10446000137033E001F032FD1D4B1F4A08336FF427
:10447000D05100B3D4F858C0674478104FEAE07EBA
:1044800000EB5E7005EBE00520F00700C0EB670075
:1044900095F800E0C05C0EEA000E85F800E0BCF87C
:1044A000000001EAD001114400F007000A78305CF6
:1044B00002430AE00AE0A06D008801EAD00111443D
:1044C00000F007000A78185C02400A70A06D801C9A
:1044D000A065BDE8F08100006800002078A60020FB
:1044E000C6640108A49FFFF7001000202DE9F041E9
:1044F000264C294F264DA078264EC1072046806DB8
:1045000038442FD0C0F34F0001F0E0FC234B6FF490
:10451000D05258B1A06D008802EAD001194400F0D1
:1045200007000A78305C02400A7029E0A16DCE19BC
:104530007010C71700EB577005EBE00520F007007F
:10454000C0EB6600134E2F78083E805D07432F7046
:10455000088802EAD001194400F007000A78305CAC
:104560000243E1E74110CA1701EB527105EBE1028A
:1045700021F00701C1EB60001378805D03401370E8
:10458000A06D801CA065BDE8F081000068000020DF
:1045900078A60020CE640108A49FFFF70010002039
:1045A0002DE9F0472C4FB878C00751D00EF0BCFB76
:1045B0000646B86DB846001DB8650FF0BBF987B266
:1045C00098F800000021FF280BD00C46D8F85810AE
:1045D000B5B208390126A1464FF6FF7AC8F858103F
:1045E00021E0002007E036F9101000F101004D191C
:1045F00044EBE17480B2B842F5D3D8F858000838DB
:10460000C8F8580014E0D8F85810091FC8F8581016
:104610000AEA0611A8F80E100EF086FB451949EBC0
:104620000404761CB6B2BE42EDD3FF2188F8001018
:104630003A46002328462146FBF708FE4446C8F8C0
:10464000640010F075FBA06D001DA065BDE8F0874B
:10465000B86D0C30B865F9E76800002030B440F25E
:104660000D21184C00FB01F304EB4302517804299F
:1046700020D008DC01291FD0022920D0032919D11C
:1046800030BC00F00FB9052903D0062901D010294C
:1046900010D1B2F8000200280CD00B4914F8130016
:1046A0000988884206D192F80E1440F20E4041F07B
:1046B0000101815430BC704730BC00F043B830BCBD
:1046C00000F098B878B60020F62800202DE9F041D7
:1046D000074640F20D201949784301EB40040026BB
:1046E000B4F80C0404F20E45C82804D394F80E0460
:1046F00040F0020016E0B4F80A0400281CD0A4F828
:104700000A64B4F80012042904D294F80E0440F0AC
:10471000040007E02046FCF7C3FC28B194F80E041F
:1047200040F00800287005E005490220087038466E
:10473000FFF794FFA4F80062BDE8F08178B600208E
:10474000310100202DE9F04740F20D214843264970
:10475000DFF890A001EB4006B6F8000200283FD039
:1047600096F80280B6F81614B6F81804FFF7C8FBDE
:1047700087B200241D4804E03119C9780155641C32
:10478000A4B24445F8D3B6F91654814611E019F89D
:104790000430641CA4B2082D01DD082000E0284686
:1047A000C2B23946504610F0F6FC083D08372DB22B
:1047B000BFB2002DEBDC00200A490D4A07E0B6F835
:1047C00018440B7802EBD404401C237080B240459F
:1047D000F5D396F80E1440F20E4041F001018155D8
:1047E000BDE8F08788C7002078B60020C0C600204A
:1047F000001000202DE9F04740F20D2148432649E2
:10480000DFF890A001EB4006B6F8000200283FD088
:1048100096F80280B6F81614B6F81804FFF770FB85
:1048200087B200241D4804E03119C9780155641C81
:10483000A4B24445F8D3B6F91654814611E019F8EC
:104840000430641CA4B2082D01DD082000E02846D5
:10485000C2B23946504610F09EFC083D08372DB2D2
:10486000BFB2002DEBDC00200A490D4A07E0B6F884
:1048700018440B7802EBD404401C237080B24045EE
:10488000F5D396F80E1440F20E4041F00101815527
:10489000BDE8F08788C7002078B60020C0C6002099
:1048A0000010002070B540F20D214843104901EB83
:1048B0004005B5F80002002819D000240D4E0BE089
:1048C00005EB4400C01CFCF701FAB5F818142144AC
:1048D000641C26F81100A4B2B5F81604A042EFD863
:1048E00095F80E1440F20E4041F00101415570BDA3
:1048F00078B600200010002070B5154640F20D2259
:1049000000FB02F30B4A002602EB43040A4A401C58
:10491000B2FBF1F1A4F80A64C0B2084A0EF03CFC04
:10492000B4F80002B0F5007F03D2411CA4F80012D5
:10493000055570BD78B60020C00E1602414900082A
:10494000012140F20D225043024A02EB4000A0F840
:104950000A14704778B600202DE9F041804640F2F5
:104960000D20134D08FB00F705EB470000F206444D
:10497000B0F8061400F205200646FCF791FB2188EA
:1049800040F2052201EB050C02EB4702491C030A29
:1049900021800CF8023021884B19491C2180985441
:1049A000228831464046BDE8F04100F003B80000DF
:1049B00078B60020024B13F810000AF0EBBC0000A0
:1049C00069690108F0B440F20D24194E00FB04F5AA
:1049D00006EB450440F2052C04F206440CEB4505B9
:1049E0004FF0010C049FA4F800C07155218801EB21
:1049F000060C491C21800CF8052021881A0A01EBBD
:104A0000060C491C21800CF8052021888A19491CB4
:104A10002180535521883A0A8B19491C21805A5507
:104A200021888A19491C21805755F0BCFFF794BF93
:104A300078B60020F0B440F20D241B4E00FB04F5C4
:104A400006EB450440F2052704F2064407EB450552
:104A50000127278071552188052701EB060C491C89
:104A600021800CF805702188170A01EB060C491CFF
:104A700021800CF805702188DFF830C08F19491C9F
:104A800021807A553CF813100A0A21888F19491C95
:104A900021807A5521881CF813208B19491C21800C
:104AA0005A55F0BCFFF758BF78B600200010002020
:104AB000F0B440F20D241B4E00FB04F506EB450458
:104AC00040F2052704F2064407EB4505012727803D
:104AD00071552188062701EB060C491C21800CF832
:104AE00005702188170A01EB060C491C21800CF87F
:104AF00005702188DFF830C08F19491C21807A5554
:104B00003CF813100A0A21888F19491C21807A5514
:104B100021881CF813208B19491C21805A55F0BCA0
:104B2000FFF71ABF78B60020001000202DE9FF5FC4
:104B3000D81D4FEAD00A009E40F20D2046433D4862
:104B400040F2052700EB460B0BF2064407EB460646
:104B500001272780815521880F2701EB000C491C74
:104B600021800CF806702788110A07EB000C7F1CC7
:104B700027800CF8061021884FF000080F18491CF8
:104B80002180BA5521881D460A18491C218002F847
:104B900006802188DFF898900A18491C21809355D7
:104BA00021880844491C218000F806A019460E9867
:104BB000FFF7A6F9074600201F4A204B06E00E9992
:104BC00000EBD101895C1954401C80B25045F6D3EA
:104BD0000FE0082D01DD082000E02846C2B2B9B27E
:104BE000164810F0C9FA083D083709F8010B2DB234
:104BF0003FB2002DEDDC00204FF4FF770C4D0D4A45
:104C00000CE0BBF80614B94210D201EB020C2B5C8D
:104C1000491C2180401C0CF8063080B25045F0D36E
:104C2000009804B0BDE8F05FFFF796BEBDE8FF9FB7
:104C300088C7002078B6002000100020C0C60020E1
:104C40002DE9F00F824640F20D202D4E0AFB00F4B4
:104C500006EB440940F2052509F2064005EB440441
:104C60000125DDF820B00580315505881021AF19E8
:104C70006D1C058039550588110AAF196D1C05801A
:104C8000395501884FF0000C8D19491C01802A55B7
:104C900001888A19491C018002F804C001888A1918
:104CA000491C0180135501885A008D19491C018047
:104CB0002A5500211AE0B9F80624B2F5FF7F1CD26C
:104CC000DFF840800BEB010502EB060C38F815709D
:104CD000521C3F0A02800CF80470028818F8155024
:104CE0009719521C0280491C3D5589B29942E2D362
:104CF0005046BDE8F00FFFF72FBEBDE8F00F70473C
:104D000078B600200010002070B5154600EB800238
:104D100002EB40240C4A002302EB44040B4A401CE3
:104D2000B2FBF1F1A4F80632C0B2094A0EF034FA2F
:104D3000B4F80002B0F5007F04D20146401CA4F88C
:104D400000020D5570BD0000ACBE0020C00E160262
:104D5000554D000800EB800202EB4020034A012180
:104D600002EB4000A0F8061270470000ACBE002025
:104D70000B4910B50A6E4FF6FC7342EA0020CA894F
:104D8000104400F01F0208660A8203EAD00048823D
:104D900004490144D1E90001FBF7E2FA10BD00002B
:104DA00068000020001000202DE9F04113463E4A23
:104DB0004FF6FC76A0F1820E146E4FF0000C44EA20
:104DC0000323D489BEF10F0F234403F01F0406EA26
:104DD000D306136659D2DFE80EF0085811581C5854
:104DE00026582F58385842584C0001F00F006146A1
:104DF0002246FBF7A2FA07460F2006E0C8B261463A
:104E00002246FBF79AFA0746FF20A040C043C51789
:104E10003EE0C1F30B0061462246FBF78EFA0746DF
:104E200040F6FF70F1E788B261462246FBF785FA4B
:104E300007464FF6FF70E8E7C1F3130061462246CC
:104E4000FBF77BFA07461948DFE721F07F40614610
:104E50002246FBF772FA07466FF07F40D5E721F054
:104E6000704061462246FBF768FA07466FF07040D3
:104E7000CBE70846654622466146FBF75EFA0746E1
:104E80004FF0FF30A040C04302E0936D9B1D93653F
:104E9000074A3244D2E9004304402B403C430B43D1
:104EA000C2E90043BDE8F08168000020FFFF0F0069
:104EB000001000202DE9F05F29498878C0074AD00A
:104EC0000DF012FF04460DF00FFF83460DF00CFFAE
:104ED00082460EF02FFD1FFA80F90022214FDFF8E5
:104EE00088C034E00BEB02010CEBD10001F00701AC
:104EF0000578795CC2EBC2030D4305700021534471
:104F000065180CEBD50005F0070500787D5D28429B
:104F100009D05D180CEBD50005F0070506787D5D1E
:104F20002E4306700DE058180CEBD005DFF83480E6
:104F300000F0070008F108082E7818F80000064075
:104F40002E70491CC9B20729DAD9521CD2B24A457F
:104F5000C8D3BDE8F09F886D10308865F9E7000080
:104F600068000020C664010800100020F8B505465E
:104F700030481E461446DDE906130288052C33D05E
:104F80000ADC4FF4FA60012C1FD0022C1DD0032C38
:104F90001ED0042C06D11BE0062C2BD00F2C2FD0BA
:104FA000102C3AD0234941F26240091D088040F29A
:104FB0000D2045432048002100EB450000F58160AD
:104FC0008171012101708180F8BD814202D9EEE733
:104FD0007D29ECD80029EAD00091D1B2334622468F
:104FE0002846FFF7EFFCE2E7D1B232462846FFF74A
:104FF00021FDDCE7D1B232462846FFF759FDD6E75E
:10500000B1F5F66FD3D80029D1D00093CBB2D1B28D
:1050100032462846FFF78AFDC9E77B29C7D8002911
:10502000C5D00093CBB2D1B232462846FFF708FE76
:10503000BDE70000F628002078B600202DE9F843EF
:10504000044600214FF0006000F0B6F84FF4806095
:1050500000F0A8F825208DF8000002268DF80160E8
:1050600000258DF802508DF80340684600F068F87E
:105070000E208DF800004FF003088DF801808DF8A8
:10508000026001268DF80360684600F059F81D2083
:105090008DF8000005208DF801008DF802508DF884
:1050A0000340684600F04CF81E208DF800000427ED
:1050B0008DF801708DF802508DF80340684600F0BD
:1050C0003FF832208DF8000006208DF801008DF8A1
:1050D00002508DF80340684600F032F82E208DF81B
:1050E00000008DF801508DF802608DF8036068466D
:1050F00000F026F81C208DF800008DF801508DF886
:1051000002508DF80340684600F01AF828208DF808
:1051100000008DF801708DF802508DF8034068464C
:1051200000F00EF817208DF800008DF801808DF842
:1051300002508DF80340684600F002F8BDE8F8839D
:1051400070B50F23C278017801244FF0E025DAB161
:10515000124A126802F4E062C2F5E062120AC2F179
:105160000406D3404278B24086781E400C4B16436A
:105170003201CA54007800F01F018C40400905EB51
:105180008000C0F8004170BD01F01F008440480954
:1051900005EB8000C0F8804170BD00000CED00E020
:1051A00000E400E00249084302490860704700003B
:1051B0000000FA050CED00E0024A114001430248EC
:1051C0000160704780FFFF1F08ED00E00A4901EB16
:1051D000D00100F007000A780849085C084902403D
:1051E000887800F001031A4302D040F0010001E08A
:1051F00000F0FE008870704700100020C6640108AF
:10520000680000202DE9F041274D284FA86D384453
:10521000C0F34F0000F05AFE254ED0B1A86D0088B3
:1052200020F4504000F0F4FD08B100242BE0A86DFC
:105230000124C1194810C21700EB527006EBE002BE
:1052400020F00700C0EB61001A491378405C03406E
:1052500018E0A86D0024008820F4504000F0D8FD2C
:1052600088B1A86DC1194810C21700EB527006EB47
:10527000E00220F00700C0EB61000E491378083906
:10528000405C03431370A878C10709D1012C07D0F3
:1052900020F00100A870A86D801CA865BDE8F08111
:1052A00040F00100F6E7000068000020A49FFFF72F
:1052B00078A60020CE6401080B4901EBD00100F074
:1052C00007000A780949085C09490240887800F01B
:1052D00001035B1E1A4203D000F0FE008870704785
:1052E00040F00100FAE7000000100020C664010849
:1052F000680000202DE9F041274D284FA86D384463
:10530000C0F34F0000F0E2FD254EC0B1A86D0024AF
:10531000008820F4504000F07BFD50BBA86DC119FF
:105320004810C21700EB527006EBE00220F00700B5
:10533000C0EB61001B491378405C034018E0A86D86
:10534000008820F4504000F063FD98B1A86D01245E
:10535000C1194810C21700EB527006EBE00220F0B2
:105360000700C0EB61000F4913780839405C034324
:10537000137000E00024A878C10709D1012C07D0E0
:1053800000F0FE00A870A86D801CA865BDE8F08143
:1053900040F00100F6E7000068000020A49FFFF73E
:1053A00078A60020CE640108F0B5DFF890E0244E26
:1053B00071469EF80A508B78224900F00702A6F148
:1053C000080401EBD001012D2ED19EF80950012DCA
:1053D00004D00A2828D2D80728D1F0BD174DDFF80D
:1053E00064C00A282F8C07F007050CEBD70706D2FC
:1053F000D807F2D03878735D1840387016E03F78DF
:10540000655D2F42E9D0DB0714D00B78A25C134313
:105410000B700D4A9EF80B1022F81100491C8EF8F3
:105420000B10F0BD0870F0BDD80703D00878A25C5F
:105430001043F7E70878B25C1040F3E768000020FB
:10544000CE640108001000203806002030B50F4C53
:10545000E078A17800EB012080B200F02DFB0C4930
:1054600001EBD005E078A17800EB012080B200F0DC
:1054700023FB084900F00700085C297808402870E1
:105480000620054960700120488130BDB4A100208C
:1054900000100020CE6401081E01002030B50F4C22
:1054A000E078A17800EB012080B200F005FB0C4908
:1054B00001EBD005E078A17800EB012080B200F08C
:1054C000FBFA084900F00700085C297808432870B7
:1054D0000620054960700120488130BDB4A100203C
:1054E00000100020C66401081E01002070B5374B73
:1054F00018890B2805D13649087937280FD0382864
:105500000DD00FF031FB33498878602854D025DC6A
:10551000102839D01DDC90B301282BD138E02E4A59
:105520008C794D79145D555D04EB0514CD79097ABC
:10553000555D515C2D0305EB0121214499813728EC
:1055400003D0BDE87040FCF73FBFBDE87040FCF7FA
:105550005BBF112820D041280CD125E063282DD035
:1055600004DC612824D0622804D129E077281FD0E8
:10557000872815D0152048700120588170BDFFE79D
:10558000BDE8704000F074B8BDE8704000F09EB90E
:10559000BDE8704000F022B8BDE8704000F046B9A8
:1055A000BDE870400DF054BCBDE870400FF004B889
:1055B000BDE870400DF062BC012002E0022000E076
:1055C0000320BDE87040FDF72FBA00001E01002047
:1055D00016A40020B4A100201C6701082DE9F043A7
:1055E000DFF87CC0DFF87C8002208CF80100B8F87E
:1055F0000E000021A0F5004087B2A8F80E70084602
:10560000194DDFF8689098F8056011E03B1819F81B
:1056100003400CEB400305EB141204F00F04127866
:105620009A702C5D401C22441144DC70C9B280B2D7
:10563000B042EBD30CEB40020323C91C9370C9B2F8
:1056400005EB111301F00F011B78D370695C117128
:10565000042101EB4000A8F80A00BDE8F083000037
:10566000B4A100201E0100200867010800600008A6
:105670002DE9F04F5A480221002441700179C07889
:1056800001EB002080B200F069FA564941F29077B0
:10569000B842888103D0A0F5B851D03968D1B8425A
:1056A00066D1514800252E4690F80090DFF83CB1B5
:1056B00030E00BEB460141F204485B4631F808004C
:1056C00000F04CFA4008A0F5FE41E0390DD1761CFF
:1056D000F6B203EB460103EB450231F808006D1CFE
:1056E000ADB233F81010D15304E003EB450233F8A8
:1056F0001010D1536D1CA0F5C061ADB26E2907D852
:1057000003EB400003EB450140886D1CC853ADB26C
:10571000761CF6B24E45CCD33348801C10351FFAA8
:1057200085F890F800A0002520E071190BEB4101ED
:1057300041F20440D946085A00F0BEF9020900F0CF
:105740000F0039F81220012101FA00F3934308EB0E
:10575000151209EB4200384405F00F03028801FAE4
:1057600003F112D08A436D1C0280EDB25545DCD3A3
:10577000DFF8708000201E4DDFF864C0DFF8749001
:10578000B8F80C7098F8056013E00A43EBE73A1894
:105790000CEB400312F80910401C05EB111201F04C
:1057A0000F0112789A70695CD97011442144CCB20F
:1057B00080B2B042EBD30CEB400103228A70E41CB0
:1057C000E2B205EB121302F00F021B78CB70AA5C59
:1057D0000A71042101EB4000A8F80A00BDE8F08F2F
:1057E000B4A100201E010020002400200010002091
:1057F00008670108001000200A48C178807801EB92
:105800000020094980B28881A0F56060023805D087
:10581000C82801D00FF012B9652000E001200FF078
:1058200057B90000B4A100201E0100202DE9F04767
:10583000214F234A214E3879F9784FF0010900EBC6
:1058400001200A2111701F49002286F801900A7078
:10585000A0F50040B081144606F11005DFF868801D
:1058600020E0B0890219D10A29706878814207D1F5
:1058700038198379484202EBC02128F811300FE033
:105880000FF04CFC28780DF067FB28786870B2891F
:1058900039192244404202EBC022897928F81210BB
:1058A000641CA4B270798442DBD306207870A6F819
:1058B0000A90BDE8F0870000B4A100201E0100207E
:1058C000E011002070000020B091002070B50E4D56
:1058D0000E4C00232879E9780D4E00EB0120A081C1
:1058E00009E0A089184480B200F038F9E9185B1C7F
:1058F000897981559BB260798342F2D30620687022
:105900000120608170BD0000B4A100201E010020B4
:105910000010002070B50F4D04220F4CA978E878D4
:1059200002EB01210844A08100230C4E09E0A0896C
:10593000184480B200F012F9E9185B1C49798155CE
:105940009BB260798342F2D30620687001206081A7
:1059500070BD0000B4A100201E0100200010002036
:105960002DE9F04734488078C00763D00DF0DCF9AA
:10597000B0F800900DF0D8F9B0F900A00DF0D4F90E
:1059800004460DF0D1F9B4F90050B4F90860B4F947
:10599000188095FBF6FCB4F90E60E7880CFB068CCA
:1059A000B4F81080B4F90A30B4F90C20A6EB08065C
:1059B00066447E43A683678A04F10E01A7EB0906BD
:1059C000E681B4F90440B1F90660C4F10107664309
:1059D00007FB0A6403FB025592FBF5F624B28C80A8
:1059E0005343B1F9087093FBF5F23C44B1F90670EA
:1059F000B1F90C307F4204EB4704664302FB0362BB
:105A00004A81B0F90020B1F90E301A4447F6FE730E
:105A10009A4201DD5A1C04E0084B9A4201DC0380E3
:105A200000E0028048898881C88808818888C88009
:105A300008884880BDE8F087680000200080FFFFEC
:105A400030B5184C022060702079617900EB01209C
:105A500080B200F031F8144901EBD000617905788B
:105A6000207900EB012080B200F026F80F4900F009
:105A70000700085C054201D0312000E03020A07012
:105A80000320E070A0780A49C01CC0B201EB1012DC
:105A900000F00F0012782271085C06496071052041
:105AA000488130BDB4A1002000100020C664010868
:105AB000086701081E010020A0F58041B1F5C06F04
:105AC00002D2A0F5605047E0A0F58C41B1F5C05F6F
:105AD00002D2A0F5F0503FE0A0F5BC41FF2902D86A
