:10008F0020400900FF00FF00C000FE00FF0003003A
:10009F00FF00FE00FF00FF001800180018001800F6
:1000AF0018001800C300C300C300660066002400D8
:1000BF0018001800FF00FF001800180018001800A3
:0300CF00180018FE
:10018A0012022212010F1201F91201727FE87E0394
:05019A0012013480F4A5
:05022200C2A0D2A222DF
:10013400E4FDFCC3ED9FEC9E5015E4FBFA0BBB0001
:0F014400010AEB647B4A70F50DBD00010C80E4ED
:010153002289
:05015400120159AF0586
:10015900E4FEC2A0EF30E704D2A18002C2A1D2A07E
:08016900EF25E0FF0EBE08EADD
:01017100226B
:08021A00C2A2120154D2A2227B
:02019F00AD07AA
:0F01A100C2A2E4FC7F0C1201540CBC04F7D2A2E2
:0101B000222C
:0201B100AD0798
:0F01B300C2A2E4FC7F0B1201540CBC04F7D2A2D1
:0101C200221A
:0201C300AD0786
:0F01C500C2A2E4FC7F0A1201540CBC04F7D2A2C0
:0101D4002208
:0201D500AD0774
:0F01D700C2A2E4FC7F091201540CBC04F7D2A2AF
:0101E60022F6
:0201E700AD0762
:0F01E900C2A2E4FC7F0F1201540CBC04F7D2A297
:0101F80022E4
:10010F00E4FF12019F7F647E001201347F01120110
:10011F009FE4FF1201E7E4FF1201D5E4FF1201C3D0
:05012F007F070201B191
:1001F900E4FCEC540704FFE4FD12021A0CBC0BF2F8
:0102090022D2
:0200D300AD0777
:1000D500C2A2E508540704FF120159E50825E024EA
:1000E50009F808E6FF120159E4FCED75F002A4FFDA
:1000F500ECC39FE5F06480F87480985008E4FF1223
:0A01050001590C80E5D2A202020AA3
:0F020A00C2A2E4FDE4FF1201590DBD08F7D2A214
:0102190022C2
:10017200E4F508E508131313541FFF1200D3050812
:08018200E508C3942040EC22C3
:03000000020003F8
:0C000300787FE4F6D8FD75814802004AC1
:10000F0002018AE493A3F8E493A34003F68001F27C
:10001F0008DFF48029E493A3F85407240CC8C333F2
:10002F00C4540F4420C8834004F456800146F6DFC1
:10003F00E4800B010204081020408090008FE47EC2
:10004F00019360BCA3FF543F30E509541FFEE493B6
:10005F00A360010ECF54C025E060A840B8E493A37D
:10006F00FAE493A3F8E493A3C8C582C8CAC583CAA8
:10007F00F0A3C8C582C8CAC583CADFE9DEE780BE60
:0100D200002D
:00000001FF
