:0A000000020030D200D201D2023219
:10003000759842758920E587D2E7F587758DFFD2DF
:100040008ED28875A8811202901201611201777513
:1000500030317531317532103002FDC20212006547
:100060001200D780F32000030200D6C2007454129D
:1000700002D674491202D6744D1202D67445120289
:10008000D674201202D61201D2E532C4540F2430A5
:100090001202D6E532540F24301202D6743A1202FC
:1000A000D6E531C4540F24301202D6E531540F2462
:1000B000301202D6743A1202D6E530C4540F2430FE
:1000C0001202D6E530540F24301202D6740D1202FB
:1000D000D6740A1202D622200103020160C2017402
:1000E000441202D674411202D674541202D67445D8
:1000F0001202D674201202D61201FAE533C4540F4C
:1001000024301202D6E533540F24301202D6743A4A
:100110001202D6E534C4540F24301202D6E534540A
:100120000F24301202D6743A1202D6E535C4540FA9
:1001300024301202D6E535540F24301202D6743A18
:100140001202D6E536C4540F24301202D6E53654D6
:100150000F24301202D6740D1202D6740A1202D67F
:100160002212029574D01202277400120227740022
:100170001202271202A72212029574D012022774CB
:100180000712022774101202271202A722120295E8
:1001900074D01202277400120227E530120227E5FC
:1001A00031120227E5321202271202A7221202950B
:1001B00074D01202277403120227E533120227E5D6
:1001C00034120227E535120227E536120227120201
:1001D000A72212029574D01202277400120227126D
:1001E00002B374D112022712024CF53012024CF500
:1001F0003112026EF5321202A72212029574D01249
:10020000022774031202271202B374D112022712BA
:10021000024CF53312024CF53412024CF535120241
:100220006EF5361202A722C0077F08C29133929062
:100230000000D2910000DFF3C29100000000D290D4
:10024000D29100A2900000C291D00722C0077F087F
:10025000D290D29100A2903300C291000000DFF250
:10026000C29000D29100000000C291D00722C007C6
:100270007F08D290D29100A2903300C2910000007A
:10028000DFF2D29000D29100000000C291D007228C
:10029000D291D29022D290D2910000000000C29060
:1002A00000000000C29122C290D291000000000024
:1002B000D29022D290D2910000000000C2900000A3
:1002C0000000C2910000220000D291000022000034
:0E02D000C291000000223099FDC299F59922DA
:00000001FF
